{
  "contractName": "ClockAuctionBase",
  "abi": [
    {
      "constant": true,
      "inputs": [],
      "name": "ownerCut",
      "outputs": [
        {
          "name": "",
          "type": "uint256"
        }
      ],
      "payable": false,
      "stateMutability": "view",
      "type": "function"
    },
    {
      "constant": true,
      "inputs": [],
      "name": "nonFungibleContract",
      "outputs": [
        {
          "name": "",
          "type": "address"
        }
      ],
      "payable": false,
      "stateMutability": "view",
      "type": "function"
    },
    {
      "anonymous": false,
      "inputs": [
        {
          "indexed": false,
          "name": "tokenId",
          "type": "uint256"
        },
        {
          "indexed": false,
          "name": "startingPrice",
          "type": "uint256"
        },
        {
          "indexed": false,
          "name": "endingPrice",
          "type": "uint256"
        },
        {
          "indexed": false,
          "name": "duration",
          "type": "uint256"
        }
      ],
      "name": "AuctionCreated",
      "type": "event"
    },
    {
      "anonymous": false,
      "inputs": [
        {
          "indexed": false,
          "name": "tokenId",
          "type": "uint256"
        },
        {
          "indexed": false,
          "name": "totalPrice",
          "type": "uint256"
        },
        {
          "indexed": false,
          "name": "winner",
          "type": "address"
        }
      ],
      "name": "AuctionSuccessful",
      "type": "event"
    },
    {
      "anonymous": false,
      "inputs": [
        {
          "indexed": false,
          "name": "tokenId",
          "type": "uint256"
        }
      ],
      "name": "AuctionCancelled",
      "type": "event"
    }
  ],
  "bytecode": "0x6060604052341561000f57600080fd5b61011d8061001e6000396000f3006060604052600436106049576000357c0100000000000000000000000000000000000000000000000000000000900463ffffffff16806383b5ff8b14604e578063dd1b7a0f146074575b600080fd5b3415605857600080fd5b605e60c6565b6040518082815260200191505060405180910390f35b3415607e57600080fd5b608460cc565b604051808273ffffffffffffffffffffffffffffffffffffffff1673ffffffffffffffffffffffffffffffffffffffff16815260200191505060405180910390f35b60015481565b6000809054906101000a900473ffffffffffffffffffffffffffffffffffffffff16815600a165627a7a723058206e17ae638b32e6374c6656ea84a2b07942958ef31833734aaa64c4942c2acc940029",
  "source": "pragma solidity ^0.4.17;\r\n\r\nimport 'contracts/zeppelin/ownership/Ownable.sol';\r\nimport 'contracts/Tokens/ERC721.sol';\r\n\r\n/// @title Auction Core\r\n/// @dev Contains models, variables, and internal methods for the auction.\r\n/// @notice We omit a fallback function to prevent accidental sends to this contract.\r\ncontract ClockAuctionBase {\r\n\r\n    // Represents an auction on an NFT\r\n    struct Auction {\r\n        // Current owner of NFT\r\n        address seller;\r\n        // Price (in wei) at beginning of auction\r\n        uint128 startingPrice;\r\n        // Price (in wei) at end of auction\r\n        uint128 endingPrice;\r\n        // Duration (in seconds) of auction\r\n        uint64 duration;\r\n        // Time when auction started\r\n        // NOTE: 0 if this auction has been concluded\r\n        uint64 startedAt;\r\n    }\r\n\r\n    // Reference to contract tracking NFT ownership\r\n    ERC721 public nonFungibleContract;\r\n\r\n    // Cut owner takes on each auction, measured in basis points (1/100 of a percent).\r\n    // Values 0-10,000 map to 0%-100%\r\n    uint256 public ownerCut;\r\n\r\n    // Map from token ID to their corresponding auction.\r\n    mapping (uint256 => Auction) tokenIdToAuction;\r\n\r\n    event AuctionCreated(uint256 tokenId, uint256 startingPrice, uint256 endingPrice, uint256 duration);\r\n    event AuctionSuccessful(uint256 tokenId, uint256 totalPrice, address winner);\r\n    event AuctionCancelled(uint256 tokenId);\r\n\r\n    /// @dev Returns true if the claimant owns the token.\r\n    /// @param _claimant - Address claiming to own the token.\r\n    /// @param _tokenId - ID of token whose ownership to verify.\r\n    function _owns(address _claimant, uint256 _tokenId) internal view returns (bool) {\r\n        return (nonFungibleContract.ownerOf(_tokenId) == _claimant);\r\n    }\r\n\r\n    /// @dev Escrows the NFT, assigning ownership to this contract.\r\n    /// Throws if the escrow fails.\r\n    /// @param _owner - Current owner address of token to escrow.\r\n    /// @param _tokenId - ID of token whose approval to verify.\r\n    function _escrow(address _owner, uint256 _tokenId) internal {\r\n        // it will throw if transfer fails\r\n        nonFungibleContract.transferFrom(_owner, this, _tokenId);\r\n    }\r\n\r\n    /// @dev Transfers an NFT owned by this contract to another address.\r\n    /// Returns true if the transfer succeeds.\r\n    /// @param _receiver - Address to transfer NFT to.\r\n    /// @param _tokenId - ID of token to transfer.\r\n    function _transfer(address _receiver, uint256 _tokenId) internal {\r\n        // it will throw if transfer fails\r\n        nonFungibleContract.transfer(_receiver, _tokenId);\r\n    }\r\n\r\n    /// @dev Adds an auction to the list of open auctions. Also fires the\r\n    ///  AuctionCreated event.\r\n    /// @param _tokenId The ID of the token to be put on auction.\r\n    /// @param _auction Auction to add.\r\n    function _addAuction(uint256 _tokenId, Auction _auction) internal {\r\n        // Require that all auctions have a duration of\r\n        // at least one minute. (Keeps our math from getting hairy!)\r\n        require(_auction.duration >= 1 minutes);\r\n\r\n        tokenIdToAuction[_tokenId] = _auction;\r\n\r\n        AuctionCreated(\r\n            uint256(_tokenId),\r\n            uint256(_auction.startingPrice),\r\n            uint256(_auction.endingPrice),\r\n            uint256(_auction.duration)\r\n        );\r\n    }\r\n\r\n    /// @dev Cancels an auction unconditionally.\r\n    function _cancelAuction(uint256 _tokenId, address _seller) internal {\r\n        _removeAuction(_tokenId);\r\n        _transfer(_seller, _tokenId);\r\n        AuctionCancelled(_tokenId);\r\n    }\r\n\r\n    /// @dev Computes the price and transfers winnings.\r\n    /// Does NOT transfer ownership of token.\r\n    function _bid(uint256 _tokenId, uint256 _bidAmount)\r\n        internal\r\n        returns (uint256)\r\n    {\r\n        // Get a reference to the auction struct\r\n        Auction storage auction = tokenIdToAuction[_tokenId];\r\n\r\n        // Explicitly check that this auction is currently live.\r\n        // (Because of how Ethereum mappings work, we can't just count\r\n        // on the lookup above failing. An invalid _tokenId will just\r\n        // return an auction object that is all zeros.)\r\n        require(_isOnAuction(auction));\r\n\r\n        // Check that the bid is greater than or equal to the current price\r\n        uint256 price = _currentPrice(auction);\r\n        require(_bidAmount >= price);\r\n\r\n        // Grab a reference to the seller before the auction struct\r\n        // gets deleted.\r\n        address seller = auction.seller;\r\n\r\n        // The bid is good! Remove the auction before sending the fees\r\n        // to the sender so we can't have a reentrancy attack.\r\n        _removeAuction(_tokenId);\r\n\r\n        // Transfer proceeds to seller (if there are any!)\r\n        if (price > 0) {\r\n            // Calculate the auctioneer's cut.\r\n            // (NOTE: _computeCut() is guaranteed to return a\r\n            // value <= price, so this subtraction can't go negative.)\r\n            uint256 auctioneerCut = _computeCut(price);\r\n            uint256 sellerProceeds = price - auctioneerCut;\r\n\r\n            // NOTE: Doing a transfer() in the middle of a complex\r\n            // method like this is generally discouraged because of\r\n            // reentrancy attacks and DoS attacks if the seller is\r\n            // a contract with an invalid fallback function. We explicitly\r\n            // guard against reentrancy attacks by removing the auction\r\n            // before calling transfer(), and the only thing the seller\r\n            // can DoS is the sale of their own asset! (And if it's an\r\n            // accident, they can call cancelAuction(). )\r\n            seller.transfer(sellerProceeds);\r\n        }\r\n\r\n        // Calculate any excess funds included with the bid. If the excess\r\n        // is anything worth worrying about, transfer it back to bidder.\r\n        // NOTE: We checked above that the bid amount is greater than or\r\n        // equal to the price so this cannot underflow.\r\n        uint256 bidExcess = _bidAmount - price;\r\n\r\n        // Return the funds. Similar to the previous transfer, this is\r\n        // not susceptible to a re-entry attack because the auction is\r\n        // removed before any transfers occur.\r\n        msg.sender.transfer(bidExcess);\r\n\r\n        // Tell the world!\r\n        AuctionSuccessful(_tokenId, price, msg.sender);\r\n\r\n        return price;\r\n    }\r\n\r\n    /// @dev Removes an auction from the list of open auctions.\r\n    /// @param _tokenId - ID of NFT on auction.\r\n    function _removeAuction(uint256 _tokenId) internal {\r\n        delete tokenIdToAuction[_tokenId];\r\n    }\r\n\r\n    /// @dev Returns true if the NFT is on auction.\r\n    /// @param _auction - Auction to check.\r\n    function _isOnAuction(Auction storage _auction) internal view returns (bool) {\r\n        return (_auction.startedAt > 0);\r\n    }\r\n\r\n    /// @dev Returns current price of an NFT on auction. Broken into two\r\n    ///  functions (this one, that computes the duration from the auction\r\n    ///  structure, and the other that does the price computation) so we\r\n    ///  can easily test that the price computation works correctly.\r\n    function _currentPrice(Auction storage _auction)\r\n        internal\r\n        view\r\n        returns (uint256)\r\n    {\r\n        uint256 secondsPassed = 0;\r\n\r\n        // A bit of insurance against negative values (or wraparound).\r\n        // Probably not necessary (since Ethereum guarnatees that the\r\n        // now variable doesn't ever go backwards).\r\n        if (now > _auction.startedAt) {\r\n            secondsPassed = now - _auction.startedAt;\r\n        }\r\n\r\n        return _computeCurrentPrice(\r\n            _auction.startingPrice,\r\n            _auction.endingPrice,\r\n            _auction.duration,\r\n            secondsPassed\r\n        );\r\n    }\r\n\r\n    /// @dev Computes the current price of an auction. Factored out\r\n    ///  from _currentPrice so we can run extensive unit tests.\r\n    ///  When testing, make this function public and turn on\r\n    ///  `Current price computation` test suite.\r\n    function _computeCurrentPrice(\r\n        uint256 _startingPrice,\r\n        uint256 _endingPrice,\r\n        uint256 _duration,\r\n        uint256 _secondsPassed\r\n    )\r\n        internal\r\n        pure\r\n        returns (uint256)\r\n    {\r\n        // NOTE: We don't use SafeMath (or similar) in this function because\r\n        //  all of our public functions carefully cap the maximum values for\r\n        //  time (at 64-bits) and currency (at 128-bits). _duration is\r\n        //  also known to be non-zero (see the require() statement in\r\n        //  _addAuction())\r\n        if (_secondsPassed >= _duration) {\r\n            // We've reached the end of the dynamic pricing portion\r\n            // of the auction, just return the end price.\r\n            return _endingPrice;\r\n        } else {\r\n            // Starting price can be higher than ending price (and often is!), so\r\n            // this delta can be negative.\r\n            int256 totalPriceChange = int256(_endingPrice) - int256(_startingPrice);\r\n\r\n            // This multiplication can't overflow, _secondsPassed will easily fit within\r\n            // 64-bits, and totalPriceChange will easily fit within 128-bits, their product\r\n            // will always fit within 256-bits.\r\n            int256 currentPriceChange = totalPriceChange * int256(_secondsPassed) / int256(_duration);\r\n\r\n            // currentPriceChange can be negative, but if so, will have a magnitude\r\n            // less that _startingPrice. Thus, this result will always end up positive.\r\n            int256 currentPrice = int256(_startingPrice) + currentPriceChange;\r\n\r\n            return uint256(currentPrice);\r\n        }\r\n    }\r\n\r\n    /// @dev Computes owner's cut of a sale.\r\n    /// @param _price - Sale price of NFT.\r\n    function _computeCut(uint256 _price) internal view returns (uint256) {\r\n        // NOTE: We don't use SafeMath (or similar) in this function because\r\n        //  all of our entry functions carefully cap the maximum values for\r\n        //  currency (at 128-bits), and ownerCut <= 10000 (see the require()\r\n        //  statement in the ClockAuction constructor). The result of this\r\n        //  function is always guaranteed to be <= _price.\r\n        return _price * ownerCut / 10000;\r\n    }\r\n\r\n}\r\n\r\n/// @title Clock auction for non-fungible tokens.\r\n/// @notice We omit a fallback function to prevent accidental sends to this contract.\r\ncontract ClockAuction is Pausable, ClockAuctionBase {\r\n\r\n    /// @dev The ERC-165 interface signature for ERC-721.\r\n    ///  Ref: https://github.com/ethereum/EIPs/issues/165\r\n    ///  Ref: https://github.com/ethereum/EIPs/issues/721\r\n    bytes4 constant InterfaceSignature_ERC721 = bytes4(0x9a20483d);\r\n\r\n    /// @dev Constructor creates a reference to the NFT ownership contract\r\n    ///  and verifies the owner cut is in the valid range.\r\n    /// @param _nftAddress - address of a deployed contract implementing\r\n    ///  the Nonfungible Interface.\r\n    /// @param _cut - percent cut the owner takes on each auction, must be\r\n    ///  between 0-10,000.\r\n    function ClockAuction(address _nftAddress, uint256 _cut) public {\r\n        require(_cut <= 10000);\r\n        ownerCut = _cut;\r\n\r\n        ERC721 candidateContract = ERC721(_nftAddress);\r\n        require(candidateContract.supportsInterface(InterfaceSignature_ERC721));\r\n        nonFungibleContract = candidateContract;\r\n    }\r\n\r\n    /// @dev Remove all Ether from the contract, which is the owner's cuts\r\n    ///  as well as any Ether sent directly to the contract address.\r\n    ///  Always transfers to the NFT contract, but can be called either by\r\n    ///  the owner or the NFT contract.\r\n    function withdrawBalance() external {\r\n        address nftAddress = address(nonFungibleContract);\r\n\r\n        require(\r\n            msg.sender == owner ||\r\n            msg.sender == nftAddress\r\n        );\r\n        // We are using this boolean method to make sure that even if one fails it will still work\r\n        bool res = nftAddress.send(this.balance);\r\n        res = res; //To stop warnings about unused variables in some IDE's.\r\n    }\r\n\r\n    /// @dev Creates and begins a new auction.\r\n    /// @param _tokenId - ID of token to auction, sender must be owner.\r\n    /// @param _startingPrice - Price of item (in wei) at beginning of auction.\r\n    /// @param _endingPrice - Price of item (in wei) at end of auction.\r\n    /// @param _duration - Length of time to move between starting\r\n    ///  price and ending price (in seconds).\r\n    /// @param _seller - Seller, if not the message sender\r\n    function createAuction(uint256 _tokenId,uint256 _startingPrice,uint256 _endingPrice,uint256 _duration,address _seller) external whenNotPaused {\r\n        // Sanity check that no inputs overflow how many bits we've allocated\r\n        // to store them in the auction struct.\r\n        require(_startingPrice == uint256(uint128(_startingPrice)));\r\n        require(_endingPrice == uint256(uint128(_endingPrice)));\r\n        require(_duration == uint256(uint64(_duration)));\r\n\r\n        require(_owns(msg.sender, _tokenId));\r\n        _escrow(msg.sender, _tokenId);\r\n        Auction memory auction = Auction(\r\n            _seller,\r\n            uint128(_startingPrice),\r\n            uint128(_endingPrice),\r\n            uint64(_duration),\r\n            uint64(now)\r\n        );\r\n        _addAuction(_tokenId, auction);\r\n    }\r\n\r\n    /// @dev Bids on an open auction, completing the auction and transferring\r\n    ///  ownership of the NFT if enough Ether is supplied.\r\n    /// @param _tokenId - ID of token to bid on.\r\n    function bid(uint256 _tokenId) external payable whenNotPaused {\r\n        // _bid will throw if the bid or funds transfer fails\r\n        _bid(_tokenId, msg.value);\r\n        _transfer(msg.sender, _tokenId);\r\n    }\r\n\r\n    /// @dev Cancels an auction that hasn't been won yet.\r\n    ///  Returns the NFT to original owner.\r\n    /// @notice This is a state-modifying function that can\r\n    ///  be called while the contract is paused.\r\n    /// @param _tokenId - ID of token on auction\r\n    function cancelAuction(uint256 _tokenId) external {\r\n        Auction storage auction = tokenIdToAuction[_tokenId];\r\n        require(_isOnAuction(auction));\r\n        address seller = auction.seller;\r\n        require(msg.sender == seller);\r\n        _cancelAuction(_tokenId, seller);\r\n    }\r\n\r\n    /// @dev Cancels an auction when the contract is paused.\r\n    ///  Only the owner may do this, and NFTs are returned to\r\n    ///  the seller. This should only be used in emergencies.\r\n    /// @param _tokenId - ID of the NFT on auction to cancel.\r\n    function cancelAuctionWhenPaused(uint256 _tokenId) whenPaused onlyOwner external {\r\n        Auction storage auction = tokenIdToAuction[_tokenId];\r\n        require(_isOnAuction(auction));\r\n        _cancelAuction(_tokenId, auction.seller);\r\n    }\r\n\r\n    /// @dev Returns auction info for an NFT on auction.\r\n    /// @param _tokenId - ID of NFT on auction.\r\n    function getAuction(uint256 _tokenId)\r\n        external\r\n        view\r\n        returns\r\n    (\r\n        address seller,\r\n        uint256 startingPrice,\r\n        uint256 endingPrice,\r\n        uint256 duration,\r\n        uint256 startedAt\r\n    ) {\r\n        Auction storage auction = tokenIdToAuction[_tokenId];\r\n        require(_isOnAuction(auction));\r\n        return (\r\n            auction.seller,\r\n            auction.startingPrice,\r\n            auction.endingPrice,\r\n            auction.duration,\r\n            auction.startedAt\r\n        );\r\n    }\r\n\r\n    /// @dev Returns the current price of an auction.\r\n    /// @param _tokenId - ID of the token price we are checking.\r\n    function getCurrentPrice(uint256 _tokenId)\r\n        external\r\n        view\r\n        returns (uint256)\r\n    {\r\n        Auction storage auction = tokenIdToAuction[_tokenId];\r\n        require(_isOnAuction(auction));\r\n        return _currentPrice(auction);\r\n    }\r\n\r\n}\r\n\r\n///@title CLock auction modified for sale of drones\r\n///@notice We omit a fallback function to prevent accidental sends to this contract\r\ncontract SaleClockAuction is ClockAuction {\r\n    // @dev Sanity check that allows us to ensure that we are pointing to the\r\n    // right auction in our setSaleAuctionAddress() call.\r\n    bool public isSaleClockAuction = true;\r\n\r\n    // Tracks last 5 sale price of drone sales\r\n    uint256 public droneSaleCount;\r\n    uint256[5] public lastDroneSalePrices;\r\n\r\n    //Delegate constructor\r\n    function SaleClockAuction(address _nftAddr, uint256 _cut) public ClockAuction(_nftAddr, _cut) {}\r\n\r\n    /// @dev Creates and begins a new auction.\r\n    /// @param _tokenId - ID of token to auction, sender must be owner.\r\n    /// @param _startingPrice - Price of item (in wei) at beginning of auction.\r\n    /// @param _endingPrice - Price of item (in wei) at end of auction.\r\n    /// @param _duration - Length of auction (in seconds).\r\n    /// @param _seller - Seller, if not the message sender\r\n    function createAuction(uint256 _tokenId, uint256 _startingPrice, uint256 _endingPrice, uint256 _duration, address _seller) external {\r\n        //Sanity check that no inputs overflow how many bits we've allocated\r\n        // to store them in the auction struct.\r\n        require(_startingPrice == uint256(uint128(_startingPrice)));\r\n        require(_endingPrice == uint256(uint128(_endingPrice)));\r\n        require(_duration == uint256(uint64(_duration)));\r\n\r\n        require(msg.sender == address(nonFungibleContract));\r\n        _escrow(_seller, _tokenId);\r\n        Auction memory auction = Auction(\r\n            _seller,\r\n            uint128(_startingPrice),\r\n            uint128(_endingPrice),\r\n            uint64(_duration),\r\n            uint64(now)\r\n        );\r\n        _addAuction(_tokenId, auction);\r\n    }\r\n\r\n    /// @dev Updates lastSalePrice if seller is the nft contract\r\n    /// Otherwise, works the same as default bid method.\r\n    function bid(uint256 _tokenId) external payable {\r\n\r\n        // _bid verifies token ID size\r\n        address seller = tokenIdToAuction[_tokenId].seller;\r\n        uint256 price = _bid(_tokenId, msg.value);\r\n        _transfer(msg.sender, _tokenId);\r\n\r\n        //If not a manufacturing run auction, exit\r\n        if (seller == address(nonFungibleContract)) {\r\n            // Track manufacturing run prices\r\n            lastDroneSalePrices[droneSaleCount % 5] = price;\r\n            droneSaleCount++;\r\n        }\r\n    }\r\n\r\n    function averageManufacturingSalePrice() external view returns (uint256) {\r\n        uint256 sum = 0;\r\n        for (uint256 i = 0; i < 5; i++) {\r\n            sum += lastDroneSalePrices[i];\r\n        }\r\n        return sum / 5;\r\n    }\r\n}",
  "sourcePath": "E:\\Blockchain\\Development\\Ethereum\\Projects\\EtherStrike\\contracts\\Auctions\\Auction.sol",
  "compiler": {
    "name": "solc",
    "version": "0.4.18+commit.9cf6e910.Emscripten.clang"
  },
  "schemaVersion": "1.0.1",
  "updatedAt": "2018-01-03T21:38:00.398Z"
}