{
  "contractName": "ERC721",
  "abi": [
    {
      "constant": true,
      "inputs": [
        {
          "name": "_interfaceID",
          "type": "bytes4"
        }
      ],
      "name": "supportsInterface",
      "outputs": [
        {
          "name": "",
          "type": "bool"
        }
      ],
      "payable": false,
      "stateMutability": "view",
      "type": "function"
    },
    {
      "constant": false,
      "inputs": [
        {
          "name": "_to",
          "type": "address"
        },
        {
          "name": "_tokenId",
          "type": "uint256"
        }
      ],
      "name": "approve",
      "outputs": [],
      "payable": false,
      "stateMutability": "nonpayable",
      "type": "function"
    },
    {
      "constant": true,
      "inputs": [],
      "name": "totalSupply",
      "outputs": [
        {
          "name": "total",
          "type": "uint256"
        }
      ],
      "payable": false,
      "stateMutability": "view",
      "type": "function"
    },
    {
      "constant": false,
      "inputs": [
        {
          "name": "_from",
          "type": "address"
        },
        {
          "name": "_to",
          "type": "address"
        },
        {
          "name": "_tokenId",
          "type": "uint256"
        }
      ],
      "name": "transferFrom",
      "outputs": [],
      "payable": false,
      "stateMutability": "nonpayable",
      "type": "function"
    },
    {
      "constant": true,
      "inputs": [
        {
          "name": "_tokenId",
          "type": "uint256"
        }
      ],
      "name": "ownerOf",
      "outputs": [
        {
          "name": "owner",
          "type": "address"
        }
      ],
      "payable": false,
      "stateMutability": "view",
      "type": "function"
    },
    {
      "constant": true,
      "inputs": [
        {
          "name": "_owner",
          "type": "address"
        }
      ],
      "name": "balanceOf",
      "outputs": [
        {
          "name": "balance",
          "type": "uint256"
        }
      ],
      "payable": false,
      "stateMutability": "view",
      "type": "function"
    },
    {
      "constant": false,
      "inputs": [
        {
          "name": "_to",
          "type": "address"
        },
        {
          "name": "_tokenId",
          "type": "uint256"
        }
      ],
      "name": "transfer",
      "outputs": [],
      "payable": false,
      "stateMutability": "nonpayable",
      "type": "function"
    },
    {
      "anonymous": false,
      "inputs": [
        {
          "indexed": false,
          "name": "from",
          "type": "address"
        },
        {
          "indexed": false,
          "name": "to",
          "type": "address"
        },
        {
          "indexed": false,
          "name": "tokenId",
          "type": "uint256"
        }
      ],
      "name": "Transfer",
      "type": "event"
    },
    {
      "anonymous": false,
      "inputs": [
        {
          "indexed": false,
          "name": "owner",
          "type": "address"
        },
        {
          "indexed": false,
          "name": "approved",
          "type": "address"
        },
        {
          "indexed": false,
          "name": "tokenId",
          "type": "uint256"
        }
      ],
      "name": "Approval",
      "type": "event"
    }
  ],
  "bytecode": "0x6060604052341561000f57600080fd5b6103068061001e6000396000f300606060405260043610610083576000357c0100000000000000000000000000000000000000000000000000000000900463ffffffff16806301ffc9a714610088578063095ea7b3146100e257806318160ddd1461012457806323b872dd1461014d5780636352211e146101ae57806370a0823114610211578063a9059cbb1461025e575b600080fd5b341561009357600080fd5b6100c860048080357bffffffffffffffffffffffffffffffffffffffffffffffffffffffff19169060200190919050506102a0565b604051808215151515815260200191505060405180910390f35b34156100ed57600080fd5b610122600480803573ffffffffffffffffffffffffffffffffffffffff169060200190919080359060200190919050506102ab565b005b341561012f57600080fd5b6101376102af565b6040518082815260200191505060405180910390f35b341561015857600080fd5b6101ac600480803573ffffffffffffffffffffffffffffffffffffffff1690602001909190803573ffffffffffffffffffffffffffffffffffffffff169060200190919080359060200190919050506102b9565b005b34156101b957600080fd5b6101cf60048080359060200190919050506102be565b604051808273ffffffffffffffffffffffffffffffffffffffff1673ffffffffffffffffffffffffffffffffffffffff16815260200191505060405180910390f35b341561021c57600080fd5b610248600480803573ffffffffffffffffffffffffffffffffffffffff169060200190919050506102ca565b6040518082815260200191505060405180910390f35b341561026957600080fd5b61029e600480803573ffffffffffffffffffffffffffffffffffffffff169060200190919080359060200190919050506102d6565b005b600060019050919050565b5050565b6000808091505090565b505050565b60008080915050919050565b60008080915050919050565b50505600a165627a7a72305820e66547670299901b1f856940b9815c7dcdca07eb62dfb641cce978c91359ea7d0029",
  "source": "pragma solidity ^0.4.17;\r\n/// @title Interface for contracts conforming to ERC-721: Non-Fungible Tokens\r\n/// @author Dieter Shirley <dete@axiomzen.co> (https://github.com/dete)\r\ncontract ERC721 {\r\n    // Required methods\r\n    function totalSupply() public view returns (uint256 total) {\r\n        uint256 newtotal;\r\n        return newtotal;\r\n    }\r\n    function balanceOf(address _owner) public view returns (uint256 balance)\r\n    {\r\n         uint256 newint;\r\n         return newint;\r\n    }\r\n    function ownerOf(uint256 _tokenId) external view returns (address owner) {\r\n        address newowner;\r\n        return newowner;\r\n    }\r\n    function approve(address _to, uint256 _tokenId) external {\r\n    }\r\n    function transfer(address _to, uint256 _tokenId) external {\r\n\r\n    }\r\n    function transferFrom(address _from, address _to, uint256 _tokenId) external {\r\n\r\n    }\r\n\r\n    // Events\r\n    event Transfer(address from, address to, uint256 tokenId);\r\n    event Approval(address owner, address approved, uint256 tokenId);\r\n\r\n    // Optional\r\n    // function name() public view returns (string name);\r\n    // function symbol() public view returns (string symbol);\r\n    // function tokensOfOwner(address _owner) external view returns (uint256[] tokenIds);\r\n    // function tokenMetadata(uint256 _tokenId, string _preferredTransport) public view returns (string infoUrl);\r\n\r\n    // ERC-165 Compatibility (https://github.com/ethereum/EIPs/issues/165)\r\n    function supportsInterface(bytes4 _interfaceID) external view returns (bool)\r\n    {\r\n        return true;\r\n    }\r\n}",
  "sourcePath": "contracts/Tokens/ERC721.sol",
  "compiler": {
    "name": "solc",
    "version": "0.4.18+commit.9cf6e910.Emscripten.clang"
  },
  "schemaVersion": "1.0.1",
  "updatedAt": "2018-01-04T22:15:52.583Z"
}