{
  "contractName": "EtherWarzRoleManagement",
  "abi": [
    {
      "constant": true,
      "inputs": [],
      "name": "tokManagerAddress",
      "outputs": [
        {
          "name": "",
          "type": "address"
        }
      ],
      "payable": false,
      "stateMutability": "view",
      "type": "function"
    },
    {
      "constant": false,
      "inputs": [
        {
          "name": "_newTokManager",
          "type": "address"
        }
      ],
      "name": "setTokManager",
      "outputs": [],
      "payable": false,
      "stateMutability": "nonpayable",
      "type": "function"
    },
    {
      "constant": false,
      "inputs": [],
      "name": "unpause",
      "outputs": [],
      "payable": false,
      "stateMutability": "nonpayable",
      "type": "function"
    },
    {
      "constant": true,
      "inputs": [],
      "name": "paused",
      "outputs": [
        {
          "name": "",
          "type": "bool"
        }
      ],
      "payable": false,
      "stateMutability": "view",
      "type": "function"
    },
    {
      "constant": true,
      "inputs": [],
      "name": "ethManagerAddress",
      "outputs": [
        {
          "name": "",
          "type": "address"
        }
      ],
      "payable": false,
      "stateMutability": "view",
      "type": "function"
    },
    {
      "constant": false,
      "inputs": [],
      "name": "pause",
      "outputs": [],
      "payable": false,
      "stateMutability": "nonpayable",
      "type": "function"
    },
    {
      "constant": true,
      "inputs": [],
      "name": "secManagerAddress",
      "outputs": [
        {
          "name": "",
          "type": "address"
        }
      ],
      "payable": false,
      "stateMutability": "view",
      "type": "function"
    },
    {
      "constant": false,
      "inputs": [
        {
          "name": "_newConManager",
          "type": "address"
        }
      ],
      "name": "setConManager",
      "outputs": [],
      "payable": false,
      "stateMutability": "nonpayable",
      "type": "function"
    },
    {
      "constant": false,
      "inputs": [
        {
          "name": "_newEthManager",
          "type": "address"
        }
      ],
      "name": "setEthManager",
      "outputs": [],
      "payable": false,
      "stateMutability": "nonpayable",
      "type": "function"
    },
    {
      "constant": true,
      "inputs": [],
      "name": "conManagerAddress",
      "outputs": [
        {
          "name": "",
          "type": "address"
        }
      ],
      "payable": false,
      "stateMutability": "view",
      "type": "function"
    },
    {
      "constant": false,
      "inputs": [
        {
          "name": "_newSecManager",
          "type": "address"
        }
      ],
      "name": "setSecManager",
      "outputs": [],
      "payable": false,
      "stateMutability": "nonpayable",
      "type": "function"
    },
    {
      "anonymous": false,
      "inputs": [
        {
          "indexed": false,
          "name": "newContract",
          "type": "address"
        }
      ],
      "name": "ContractUpgrade",
      "type": "event"
    }
  ],
  "bytecode": "0x60606040526000600360146101000a81548160ff021916908315150217905550341561002a57600080fd5b6109b3806100396000396000f3006060604052600436106100af576000357c0100000000000000000000000000000000000000000000000000000000900463ffffffff16806325bd56cc146100b45780632f1621c5146101095780633f4ba83a146101425780635c975abb1461015757806383082a64146101845780638456cb59146101d95780639796031a146101ee578063a1a2fbd714610243578063d1123ef91461027c578063d40b9485146102b5578063e60c30211461030a575b600080fd5b34156100bf57600080fd5b6100c7610343565b604051808273ffffffffffffffffffffffffffffffffffffffff1673ffffffffffffffffffffffffffffffffffffffff16815260200191505060405180910390f35b341561011457600080fd5b610140600480803573ffffffffffffffffffffffffffffffffffffffff16906020019091905050610369565b005b341561014d57600080fd5b610155610444565b005b341561016257600080fd5b61016a6104d7565b604051808215151515815260200191505060405180910390f35b341561018f57600080fd5b6101976104ea565b604051808273ffffffffffffffffffffffffffffffffffffffff1673ffffffffffffffffffffffffffffffffffffffff16815260200191505060405180910390f35b34156101e457600080fd5b6101ec610510565b005b34156101f957600080fd5b6102016106ac565b604051808273ffffffffffffffffffffffffffffffffffffffff1673ffffffffffffffffffffffffffffffffffffffff16815260200191505060405180910390f35b341561024e57600080fd5b61027a600480803573ffffffffffffffffffffffffffffffffffffffff169060200190919050506106d1565b005b341561028757600080fd5b6102b3600480803573ffffffffffffffffffffffffffffffffffffffff169060200190919050506107ac565b005b34156102c057600080fd5b6102c8610887565b604051808273ffffffffffffffffffffffffffffffffffffffff1673ffffffffffffffffffffffffffffffffffffffff16815260200191505060405180910390f35b341561031557600080fd5b610341600480803573ffffffffffffffffffffffffffffffffffffffff169060200190919050506108ad565b005b600360009054906101000a900473ffffffffffffffffffffffffffffffffffffffff1681565b6000809054906101000a900473ffffffffffffffffffffffffffffffffffffffff1673ffffffffffffffffffffffffffffffffffffffff163373ffffffffffffffffffffffffffffffffffffffff161415156103c457600080fd5b600073ffffffffffffffffffffffffffffffffffffffff168173ffffffffffffffffffffffffffffffffffffffff161415151561040057600080fd5b80600360006101000a81548173ffffffffffffffffffffffffffffffffffffffff021916908373ffffffffffffffffffffffffffffffffffffffff16021790555050565b6000809054906101000a900473ffffffffffffffffffffffffffffffffffffffff1673ffffffffffffffffffffffffffffffffffffffff163373ffffffffffffffffffffffffffffffffffffffff1614151561049f57600080fd5b600360149054906101000a900460ff1615156104ba57600080fd5b6000600360146101000a81548160ff021916908315150217905550565b600360149054906101000a900460ff1681565b600260009054906101000a900473ffffffffffffffffffffffffffffffffffffffff1681565b6000809054906101000a900473ffffffffffffffffffffffffffffffffffffffff1673ffffffffffffffffffffffffffffffffffffffff163373ffffffffffffffffffffffffffffffffffffffff1614806105b85750600160009054906101000a900473ffffffffffffffffffffffffffffffffffffffff1673ffffffffffffffffffffffffffffffffffffffff163373ffffffffffffffffffffffffffffffffffffffff16145b806106105750600260009054906101000a900473ffffffffffffffffffffffffffffffffffffffff1673ffffffffffffffffffffffffffffffffffffffff163373ffffffffffffffffffffffffffffffffffffffff16145b806106685750600360009054906101000a900473ffffffffffffffffffffffffffffffffffffffff1673ffffffffffffffffffffffffffffffffffffffff163373ffffffffffffffffffffffffffffffffffffffff16145b151561067357600080fd5b600360149054906101000a900460ff1615151561068f57600080fd5b6001600360146101000a81548160ff021916908315150217905550565b6000809054906101000a900473ffffffffffffffffffffffffffffffffffffffff1681565b6000809054906101000a900473ffffffffffffffffffffffffffffffffffffffff1673ffffffffffffffffffffffffffffffffffffffff163373ffffffffffffffffffffffffffffffffffffffff1614151561072c57600080fd5b600073ffffffffffffffffffffffffffffffffffffffff168173ffffffffffffffffffffffffffffffffffffffff161415151561076857600080fd5b80600160006101000a81548173ffffffffffffffffffffffffffffffffffffffff021916908373ffffffffffffffffffffffffffffffffffffffff16021790555050565b6000809054906101000a900473ffffffffffffffffffffffffffffffffffffffff1673ffffffffffffffffffffffffffffffffffffffff163373ffffffffffffffffffffffffffffffffffffffff1614151561080757600080fd5b600073ffffffffffffffffffffffffffffffffffffffff168173ffffffffffffffffffffffffffffffffffffffff161415151561084357600080fd5b80600260006101000a81548173ffffffffffffffffffffffffffffffffffffffff021916908373ffffffffffffffffffffffffffffffffffffffff16021790555050565b600160009054906101000a900473ffffffffffffffffffffffffffffffffffffffff1681565b6000809054906101000a900473ffffffffffffffffffffffffffffffffffffffff1673ffffffffffffffffffffffffffffffffffffffff163373ffffffffffffffffffffffffffffffffffffffff1614151561090857600080fd5b600073ffffffffffffffffffffffffffffffffffffffff168173ffffffffffffffffffffffffffffffffffffffff161415151561094457600080fd5b806000806101000a81548173ffffffffffffffffffffffffffffffffffffffff021916908373ffffffffffffffffffffffffffffffffffffffff160217905550505600a165627a7a723058204ee82025befc1b7bf856e1b544ed76757132c3c5b1231c36a62c67ac56cf1ca60029",
  "source": "pragma solidity ^0.4.17;\r\n\r\n///Some of the below contracts were adapted from those designed for use in the Cryptokitties DAP. Go check it out!  (https://www.cryptokitties.co/)\r\n///Many thanks to Axiom Zen (https://www.axiomzen.co) and the Loom Network (https://loomx.io/) for their excellent work \r\n///both pushing the boundries of Blockchain DAP development and providing excellent tutorials and learning resources.\r\n\r\n/// @title Role management contract for EtherWarz\r\n/// @author StreamVade\r\n/// @dev see the EtherWarzCore contract documentation to understand exactly how this is used.\r\ncontract EtherWarzRoleManagement {\r\n\r\n    //This contract manages roles that have access to make changes to EtherWarz contracts.\r\n    //SecurityManager:  The Security Manager can reassign roles, alter this contract and unpause the smart contract. \r\n    //                  It is initially set to the address that created the smart contract in the EtherWarzCore constructor.\r\n    //ContractManager:  The Contract Manager can update core EtherWarz contract facets.\r\n    //EtherManager:     The Ethereum Manager can withdraw funds from EtherWarzCore and its sub-contracts.\r\n    //TokenManager:     The Token Manager can mint new SmartDrone tokens.\r\n\r\n    ///@dev Emited when contract is upgraded.\r\n    event ContractUpgrade(address newContract);\r\n\r\n    // The addresses of the accounts that can execute actions within each role.\r\n    address public secManagerAddress;\r\n    address public conManagerAddress;\r\n    address public ethManagerAddress;\r\n    address public tokManagerAddress;\r\n\r\n    ///@dev Keeps track of whether the contract is paused. When that is true, most actions are blocked.\r\n    bool public paused = false;\r\n\r\n    ///@dev Access modifier for SecurityManager-only functionality.\r\n    modifier onlySecManager() {\r\n        require(msg.sender == secManagerAddress);\r\n        _;\r\n    }\r\n\r\n    ///@dev Access modifier for ContractManager-only functionality.\r\n    modifier onlyConManager() {\r\n        require(msg.sender == conManagerAddress);\r\n        _;\r\n    }\r\n\r\n    ///@dev Access modifier for EtherManager-only functionality.\r\n    modifier onlyEthManager() {\r\n        require(msg.sender == ethManagerAddress);\r\n        _;\r\n    }\r\n\r\n    ///@dev Access modifier for TokenManager-only functionality.\r\n    modifier onlyTokManager(){\r\n        require(msg.sender == tokManagerAddress);\r\n        _;\r\n    }\r\n\r\n    ///@dev Access modifier for Manager-only functionality.\r\n    modifier onlyManager(){\r\n        require(msg.sender==secManagerAddress||msg.sender==conManagerAddress||msg.sender==ethManagerAddress||msg.sender==tokManagerAddress);\r\n        _;\r\n    }\r\n\r\n    ///@dev Assigns a new address to act as the Security Manager. Only available to the current Security Manager.\r\n    ///@param _newSecManager The address of the new Security Manager.\r\n    function setSecManager(address _newSecManager) external onlySecManager {\r\n        require(_newSecManager != address(0));\r\n\r\n        secManagerAddress = _newSecManager;\r\n    }\r\n  \r\n    ///@dev Assigns a new address to act as the Contract Manager. Only available to the current Security Manager.\r\n    ///@param _newConManager The address of the new Contract Manager.\r\n    function setConManager(address _newConManager) external onlySecManager {\r\n        require(_newConManager != address(0));\r\n        conManagerAddress = _newConManager;\r\n    }\r\n\r\n    ///@dev Assigns a new address to act as the Ethereum Manager. Only available to the current Security Manager.\r\n    ///@param _newEthManager The address of the new Ethereum Manager.\r\n    function setEthManager(address _newEthManager) external onlySecManager {\r\n        require(_newEthManager != address(0));\r\n        ethManagerAddress = _newEthManager;\r\n    }\r\n\r\n    ///@dev Assigns a new address to act as the Token Manager. Only available to the current Security Manager.\r\n    ///@param _newTokManager The address of the new Token Manager.\r\n    function setTokManager(address _newTokManager) external onlySecManager {\r\n        require(_newTokManager != address(0));\r\n        tokManagerAddress = _newTokManager;\r\n    }\r\n\r\n    /*** Pausable functionality adapted from OpenZeppelin ***/\r\n\r\n    /// @dev Modifier to allow actions only when the contract IS NOT paused\r\n    modifier whenNotPaused() {\r\n        require(!paused);\r\n        _;\r\n    }\r\n\r\n    /// @dev Modifier to allow actions only when the contract IS paused\r\n    modifier whenPaused {\r\n        require(paused);\r\n        _;\r\n    }\r\n\r\n    /// @dev Called by any Manager role to pause the contract. Used only when\r\n    ///  a bug or exploit is detected and we need to limit damage.\r\n    function pause() external onlyManager whenNotPaused {\r\n        paused = true;\r\n    }\r\n\r\n    /// @dev Unpauses the smart contract. Can only be called by the Security Manager, since\r\n    ///  one reason we may pause the contract is when other accounts are\r\n    ///  compromised.\r\n    /// @notice This is public rather than external so it can be called by\r\n    ///  derived contracts.\r\n    function unpause() public onlySecManager whenPaused {\r\n        // can't unpause if contract was upgraded\r\n        paused = false;\r\n    }\r\n}",
  "sourcePath": "E:\\Blockchain\\Development\\Ethereum\\Projects\\EtherStrike\\contracts\\EtherWarzRoleManagement.sol",
  "compiler": {
    "name": "solc",
    "version": "0.4.18+commit.9cf6e910.Emscripten.clang"
  },
  "schemaVersion": "1.0.1",
  "updatedAt": "2018-01-03T21:38:00.414Z"
}