{
  "contractName": "Ownable",
  "abi": [
    {
      "constant": true,
      "inputs": [],
      "name": "owner",
      "outputs": [
        {
          "name": "",
          "type": "address"
        }
      ],
      "payable": false,
      "stateMutability": "view",
      "type": "function"
    },
    {
      "constant": false,
      "inputs": [
        {
          "name": "newOwner",
          "type": "address"
        }
      ],
      "name": "transferOwnership",
      "outputs": [],
      "payable": false,
      "stateMutability": "nonpayable",
      "type": "function"
    },
    {
      "inputs": [],
      "payable": false,
      "stateMutability": "nonpayable",
      "type": "constructor"
    }
  ],
  "bytecode": "0x6060604052341561000f57600080fd5b336000806101000a81548173ffffffffffffffffffffffffffffffffffffffff021916908373ffffffffffffffffffffffffffffffffffffffff1602179055506102008061005e6000396000f30060606040526004361061004c576000357c0100000000000000000000000000000000000000000000000000000000900463ffffffff1680638da5cb5b14610051578063f2fde38b146100a6575b600080fd5b341561005c57600080fd5b6100646100df565b604051808273ffffffffffffffffffffffffffffffffffffffff1673ffffffffffffffffffffffffffffffffffffffff16815260200191505060405180910390f35b34156100b157600080fd5b6100dd600480803573ffffffffffffffffffffffffffffffffffffffff16906020019091905050610104565b005b6000809054906101000a900473ffffffffffffffffffffffffffffffffffffffff1681565b6000809054906101000a900473ffffffffffffffffffffffffffffffffffffffff1673ffffffffffffffffffffffffffffffffffffffff163373ffffffffffffffffffffffffffffffffffffffff1614156101d157600073ffffffffffffffffffffffffffffffffffffffff168173ffffffffffffffffffffffffffffffffffffffff161415156101d057806000806101000a81548173ffffffffffffffffffffffffffffffffffffffff021916908373ffffffffffffffffffffffffffffffffffffffff1602179055505b5b505600a165627a7a72305820cb87e22b32949f48e18c60aa5658c6767c61e19d506c6a9072d69c3769be1f930029",
  "source": "pragma solidity ^0.4.4;\n\n\n/*\n * Ownable\n *\n * Base contract with an owner.\n * Provides onlyOwner modifier, which prevents function from running if it is called by anyone other than the owner.\n */\ncontract Ownable {\n  address public owner;\n\n  function  Ownable() public {\n    owner = msg.sender;\n  }\n\n  modifier onlyOwner() {\n    if (msg.sender == owner)\n      _;\n  }\n\n  function transferOwnership(address newOwner) public onlyOwner {\n    if (newOwner != address(0)) \n    owner = newOwner;\n  }\n\n}\n/**\n * @title Pausable\n * @dev Base contract which allows children to implement an emergency stop mechanism.\n */\ncontract Pausable is Ownable {\n  event Pause();\n  event Unpause();\n\n  bool public paused = false;\n\n\n  /**\n   * @dev modifier to allow actions only when the contract IS paused\n   */\n  modifier whenNotPaused() {\n    require(!paused);\n    _;\n  }\n\n  /**\n   * @dev modifier to allow actions only when the contract IS NOT paused\n   */\n  modifier whenPaused {\n    require(paused);\n    _;\n  }\n\n  /**\n   * @dev called by the owner to pause, triggers stopped state\n   */\n  function pause() public onlyOwner whenNotPaused returns (bool) {\n    paused = true;\n    Pause();\n    return true;\n  }\n\n  /**\n   * @dev called by the owner to unpause, returns to normal state\n   */\n  function unpause() public onlyOwner whenPaused returns (bool) {\n    paused = false;\n    Unpause();\n    return true;\n  }\n}",
  "sourcePath": "contracts/zeppelin/ownership/Ownable.sol",
  "compiler": {
    "name": "solc",
    "version": "0.4.18+commit.9cf6e910.Emscripten.clang"
  },
  "schemaVersion": "1.0.1",
  "updatedAt": "2018-01-04T22:15:52.590Z"
}