{
  "contractName": "SmartDroneOwnership",
  "abi": [
    {
      "constant": true,
      "inputs": [
        {
          "name": "_interfaceID",
          "type": "bytes4"
        }
      ],
      "name": "supportsInterface",
      "outputs": [
        {
          "name": "",
          "type": "bool"
        }
      ],
      "payable": false,
      "stateMutability": "view",
      "type": "function"
    },
    {
      "constant": true,
      "inputs": [
        {
          "name": "_tokenId",
          "type": "uint256"
        },
        {
          "name": "_preferredTransport",
          "type": "string"
        }
      ],
      "name": "tokenMetadata",
      "outputs": [
        {
          "name": "infoUrl",
          "type": "string"
        }
      ],
      "payable": false,
      "stateMutability": "view",
      "type": "function"
    },
    {
      "constant": true,
      "inputs": [],
      "name": "name",
      "outputs": [
        {
          "name": "",
          "type": "string"
        }
      ],
      "payable": false,
      "stateMutability": "view",
      "type": "function"
    },
    {
      "constant": false,
      "inputs": [
        {
          "name": "_to",
          "type": "address"
        },
        {
          "name": "_tokenId",
          "type": "uint256"
        }
      ],
      "name": "approve",
      "outputs": [],
      "payable": false,
      "stateMutability": "nonpayable",
      "type": "function"
    },
    {
      "constant": true,
      "inputs": [],
      "name": "totalSupply",
      "outputs": [
        {
          "name": "",
          "type": "uint256"
        }
      ],
      "payable": false,
      "stateMutability": "view",
      "type": "function"
    },
    {
      "constant": false,
      "inputs": [
        {
          "name": "_from",
          "type": "address"
        },
        {
          "name": "_to",
          "type": "address"
        },
        {
          "name": "_tokenId",
          "type": "uint256"
        }
      ],
      "name": "transferFrom",
      "outputs": [],
      "payable": false,
      "stateMutability": "nonpayable",
      "type": "function"
    },
    {
      "constant": true,
      "inputs": [],
      "name": "tokManagerAddress",
      "outputs": [
        {
          "name": "",
          "type": "address"
        }
      ],
      "payable": false,
      "stateMutability": "view",
      "type": "function"
    },
    {
      "constant": false,
      "inputs": [
        {
          "name": "_newTokManager",
          "type": "address"
        }
      ],
      "name": "setTokManager",
      "outputs": [],
      "payable": false,
      "stateMutability": "nonpayable",
      "type": "function"
    },
    {
      "constant": true,
      "inputs": [
        {
          "name": "",
          "type": "uint256"
        }
      ],
      "name": "fightAllowedToAddress",
      "outputs": [
        {
          "name": "",
          "type": "address"
        }
      ],
      "payable": false,
      "stateMutability": "view",
      "type": "function"
    },
    {
      "constant": false,
      "inputs": [],
      "name": "unpause",
      "outputs": [],
      "payable": false,
      "stateMutability": "nonpayable",
      "type": "function"
    },
    {
      "constant": false,
      "inputs": [
        {
          "name": "secs",
          "type": "uint256"
        }
      ],
      "name": "setSecondsPerBlock",
      "outputs": [],
      "payable": false,
      "stateMutability": "nonpayable",
      "type": "function"
    },
    {
      "constant": true,
      "inputs": [],
      "name": "paused",
      "outputs": [
        {
          "name": "",
          "type": "bool"
        }
      ],
      "payable": false,
      "stateMutability": "view",
      "type": "function"
    },
    {
      "constant": true,
      "inputs": [
        {
          "name": "_tokenId",
          "type": "uint256"
        }
      ],
      "name": "ownerOf",
      "outputs": [
        {
          "name": "owner",
          "type": "address"
        }
      ],
      "payable": false,
      "stateMutability": "view",
      "type": "function"
    },
    {
      "constant": true,
      "inputs": [
        {
          "name": "_owner",
          "type": "address"
        }
      ],
      "name": "balanceOf",
      "outputs": [
        {
          "name": "count",
          "type": "uint256"
        }
      ],
      "payable": false,
      "stateMutability": "view",
      "type": "function"
    },
    {
      "constant": true,
      "inputs": [],
      "name": "secondsPerBlock",
      "outputs": [
        {
          "name": "",
          "type": "uint256"
        }
      ],
      "payable": false,
      "stateMutability": "view",
      "type": "function"
    },
    {
      "constant": true,
      "inputs": [
        {
          "name": "",
          "type": "uint256"
        }
      ],
      "name": "droneIndexToOwner",
      "outputs": [
        {
          "name": "",
          "type": "address"
        }
      ],
      "payable": false,
      "stateMutability": "view",
      "type": "function"
    },
    {
      "constant": true,
      "inputs": [],
      "name": "ethManagerAddress",
      "outputs": [
        {
          "name": "",
          "type": "address"
        }
      ],
      "payable": false,
      "stateMutability": "view",
      "type": "function"
    },
    {
      "constant": false,
      "inputs": [],
      "name": "pause",
      "outputs": [],
      "payable": false,
      "stateMutability": "nonpayable",
      "type": "function"
    },
    {
      "constant": true,
      "inputs": [
        {
          "name": "_owner",
          "type": "address"
        }
      ],
      "name": "tokensOfOwner",
      "outputs": [
        {
          "name": "ownerTokens",
          "type": "uint256[]"
        }
      ],
      "payable": false,
      "stateMutability": "view",
      "type": "function"
    },
    {
      "constant": true,
      "inputs": [],
      "name": "symbol",
      "outputs": [
        {
          "name": "",
          "type": "string"
        }
      ],
      "payable": false,
      "stateMutability": "view",
      "type": "function"
    },
    {
      "constant": true,
      "inputs": [],
      "name": "secManagerAddress",
      "outputs": [
        {
          "name": "",
          "type": "address"
        }
      ],
      "payable": false,
      "stateMutability": "view",
      "type": "function"
    },
    {
      "constant": false,
      "inputs": [
        {
          "name": "_newConManager",
          "type": "address"
        }
      ],
      "name": "setConManager",
      "outputs": [],
      "payable": false,
      "stateMutability": "nonpayable",
      "type": "function"
    },
    {
      "constant": false,
      "inputs": [
        {
          "name": "_to",
          "type": "address"
        },
        {
          "name": "_tokenId",
          "type": "uint256"
        }
      ],
      "name": "transfer",
      "outputs": [],
      "payable": false,
      "stateMutability": "nonpayable",
      "type": "function"
    },
    {
      "constant": true,
      "inputs": [],
      "name": "erc721Metadata",
      "outputs": [
        {
          "name": "",
          "type": "address"
        }
      ],
      "payable": false,
      "stateMutability": "view",
      "type": "function"
    },
    {
      "constant": false,
      "inputs": [
        {
          "name": "_newEthManager",
          "type": "address"
        }
      ],
      "name": "setEthManager",
      "outputs": [],
      "payable": false,
      "stateMutability": "nonpayable",
      "type": "function"
    },
    {
      "constant": true,
      "inputs": [],
      "name": "conManagerAddress",
      "outputs": [
        {
          "name": "",
          "type": "address"
        }
      ],
      "payable": false,
      "stateMutability": "view",
      "type": "function"
    },
    {
      "constant": true,
      "inputs": [
        {
          "name": "",
          "type": "uint256"
        }
      ],
      "name": "droneIndexToApproved",
      "outputs": [
        {
          "name": "",
          "type": "address"
        }
      ],
      "payable": false,
      "stateMutability": "view",
      "type": "function"
    },
    {
      "constant": false,
      "inputs": [
        {
          "name": "_contractAddress",
          "type": "address"
        }
      ],
      "name": "setMetadataAddress",
      "outputs": [],
      "payable": false,
      "stateMutability": "nonpayable",
      "type": "function"
    },
    {
      "constant": false,
      "inputs": [
        {
          "name": "_newSecManager",
          "type": "address"
        }
      ],
      "name": "setSecManager",
      "outputs": [],
      "payable": false,
      "stateMutability": "nonpayable",
      "type": "function"
    },
    {
      "constant": true,
      "inputs": [],
      "name": "saleAuction",
      "outputs": [
        {
          "name": "",
          "type": "address"
        }
      ],
      "payable": false,
      "stateMutability": "view",
      "type": "function"
    },
    {
      "constant": true,
      "inputs": [],
      "name": "fightCooldown",
      "outputs": [
        {
          "name": "",
          "type": "uint32"
        }
      ],
      "payable": false,
      "stateMutability": "view",
      "type": "function"
    },
    {
      "anonymous": false,
      "inputs": [
        {
          "indexed": false,
          "name": "from",
          "type": "address"
        },
        {
          "indexed": false,
          "name": "to",
          "type": "address"
        },
        {
          "indexed": false,
          "name": "tokenId",
          "type": "uint256"
        }
      ],
      "name": "Transfer",
      "type": "event"
    },
    {
      "anonymous": false,
      "inputs": [
        {
          "indexed": false,
          "name": "owner",
          "type": "address"
        },
        {
          "indexed": false,
          "name": "approved",
          "type": "address"
        },
        {
          "indexed": false,
          "name": "tokenId",
          "type": "uint256"
        }
      ],
      "name": "Approval",
      "type": "event"
    },
    {
      "anonymous": false,
      "inputs": [
        {
          "indexed": false,
          "name": "owner",
          "type": "address"
        },
        {
          "indexed": false,
          "name": "droneId",
          "type": "uint256"
        },
        {
          "indexed": false,
          "name": "lineId",
          "type": "uint256"
        },
        {
          "indexed": false,
          "name": "sourceAI",
          "type": "uint256"
        }
      ],
      "name": "Construct",
      "type": "event"
    },
    {
      "anonymous": false,
      "inputs": [
        {
          "indexed": false,
          "name": "newContract",
          "type": "address"
        }
      ],
      "name": "ContractUpgrade",
      "type": "event"
    }
  ],
  "bytecode": "0x60606040526000600360146101000a81548160ff021916908315150217905550600f60045561012c600560006101000a81548163ffffffff021916908363ffffffff160217905550341561005257600080fd5b6122d4806100616000396000f30060606040526004361061018b576000357c0100000000000000000000000000000000000000000000000000000000900463ffffffff16806301ffc9a7146101905780630560ff44146101ea57806306fdde031461029a578063095ea7b31461032857806318160ddd1461036a57806323b872dd1461039357806325bd56cc146103f45780632f1621c5146104495780633b542188146104825780633f4ba83a146104e55780635663896e146104fa5780635c975abb1461051d5780636352211e1461054a57806370a08231146105ad5780637a7d4937146105fa5780638074f3321461062357806383082a64146106865780638456cb59146106db5780638462151c146106f057806395d89b411461077e5780639796031a1461080c578063a1a2fbd714610861578063a9059cbb1461089a578063bc4006f5146108dc578063d1123ef914610931578063d40b94851461096a578063dfd9e184146109bf578063e17b25af14610a22578063e60c302114610a5b578063e6cbe35114610a94578063f9767d9214610ae9575b600080fd5b341561019b57600080fd5b6101d060048080357bffffffffffffffffffffffffffffffffffffffffffffffffffffffff1916906020019091905050610b1e565b604051808215151515815260200191505060405180910390f35b34156101f557600080fd5b61021f60048080359060200190919080359060200190820180359060200191909192905050610e2f565b6040518080602001828103825283818151815260200191508051906020019080838360005b8381101561025f578082015181840152602081019050610244565b50505050905090810190601f16801561028c5780820380516001836020036101000a031916815260200191505b509250505060405180910390f35b34156102a557600080fd5b6102ad610f9a565b6040518080602001828103825283818151815260200191508051906020019080838360005b838110156102ed5780820151818401526020810190506102d2565b50505050905090810190601f16801561031a5780820380516001836020036101000a031916815260200191505b509250505060405180910390f35b341561033357600080fd5b610368600480803573ffffffffffffffffffffffffffffffffffffffff16906020019091908035906020019091905050610fd3565b005b341561037557600080fd5b61037d6110b1565b6040518082815260200191505060405180910390f35b341561039e57600080fd5b6103f2600480803573ffffffffffffffffffffffffffffffffffffffff1690602001909190803573ffffffffffffffffffffffffffffffffffffffff169060200190919080359060200190919050506110c1565b005b34156103ff57600080fd5b61040761118e565b604051808273ffffffffffffffffffffffffffffffffffffffff1673ffffffffffffffffffffffffffffffffffffffff16815260200191505060405180910390f35b341561045457600080fd5b610480600480803573ffffffffffffffffffffffffffffffffffffffff169060200190919050506111b4565b005b341561048d57600080fd5b6104a3600480803590602001909190505061128f565b604051808273ffffffffffffffffffffffffffffffffffffffff1673ffffffffffffffffffffffffffffffffffffffff16815260200191505060405180910390f35b34156104f057600080fd5b6104f86112c2565b005b341561050557600080fd5b61051b6004808035906020019091905050611355565b005b341561052857600080fd5b6105306114e8565b604051808215151515815260200191505060405180910390f35b341561055557600080fd5b61056b60048080359060200190919050506114fb565b604051808273ffffffffffffffffffffffffffffffffffffffff1673ffffffffffffffffffffffffffffffffffffffff16815260200191505060405180910390f35b34156105b857600080fd5b6105e4600480803573ffffffffffffffffffffffffffffffffffffffff16906020019091905050611574565b6040518082815260200191505060405180910390f35b341561060557600080fd5b61060d6115bd565b6040518082815260200191505060405180910390f35b341561062e57600080fd5b61064460048080359060200190919050506115c3565b604051808273ffffffffffffffffffffffffffffffffffffffff1673ffffffffffffffffffffffffffffffffffffffff16815260200191505060405180910390f35b341561069157600080fd5b6106996115f6565b604051808273ffffffffffffffffffffffffffffffffffffffff1673ffffffffffffffffffffffffffffffffffffffff16815260200191505060405180910390f35b34156106e657600080fd5b6106ee61161c565b005b34156106fb57600080fd5b610727600480803573ffffffffffffffffffffffffffffffffffffffff169060200190919050506117b8565b6040518080602001828103825283818151815260200191508051906020019060200280838360005b8381101561076a57808201518184015260208101905061074f565b505050509050019250505060405180910390f35b341561078957600080fd5b6107916118ef565b6040518080602001828103825283818151815260200191508051906020019080838360005b838110156107d15780820151818401526020810190506107b6565b50505050905090810190601f1680156107fe5780820380516001836020036101000a031916815260200191505b509250505060405180910390f35b341561081757600080fd5b61081f611928565b604051808273ffffffffffffffffffffffffffffffffffffffff1673ffffffffffffffffffffffffffffffffffffffff16815260200191505060405180910390f35b341561086c57600080fd5b610898600480803573ffffffffffffffffffffffffffffffffffffffff1690602001909190505061194d565b005b34156108a557600080fd5b6108da600480803573ffffffffffffffffffffffffffffffffffffffff16906020019091908035906020019091905050611a28565b005b34156108e757600080fd5b6108ef611b3c565b604051808273ffffffffffffffffffffffffffffffffffffffff1673ffffffffffffffffffffffffffffffffffffffff16815260200191505060405180910390f35b341561093c57600080fd5b610968600480803573ffffffffffffffffffffffffffffffffffffffff16906020019091905050611b62565b005b341561097557600080fd5b61097d611c3d565b604051808273ffffffffffffffffffffffffffffffffffffffff1673ffffffffffffffffffffffffffffffffffffffff16815260200191505060405180910390f35b34156109ca57600080fd5b6109e06004808035906020019091905050611c63565b604051808273ffffffffffffffffffffffffffffffffffffffff1673ffffffffffffffffffffffffffffffffffffffff16815260200191505060405180910390f35b3415610a2d57600080fd5b610a59600480803573ffffffffffffffffffffffffffffffffffffffff16906020019091905050611c96565b005b3415610a6657600080fd5b610a92600480803573ffffffffffffffffffffffffffffffffffffffff16906020019091905050611d36565b005b3415610a9f57600080fd5b610aa7611e10565b604051808273ffffffffffffffffffffffffffffffffffffffff1673ffffffffffffffffffffffffffffffffffffffff16815260200191505060405180910390f35b3415610af457600080fd5b610afc611e36565b604051808263ffffffff1663ffffffff16815260200191505060405180910390f35b600060405180807f737570706f727473496e74657266616365286279746573342900000000000000815250601901905060405180910390207bffffffffffffffffffffffffffffffffffffffffffffffffffffffff1916827bffffffffffffffffffffffffffffffffffffffffffffffffffffffff19161480610e28575060405180807f746f6b656e4d657461646174612875696e743235362c737472696e6729000000815250601d019050604051809103902060405180807f746f6b656e734f664f776e6572286164647265737329000000000000000000008152506016019050604051809103902060405180807f7472616e7366657246726f6d28616464726573732c616464726573732c75696e81526020017f74323536290000000000000000000000000000000000000000000000000000008152506025019050604051809103902060405180807f7472616e7366657228616464726573732c75696e7432353629000000000000008152506019019050604051809103902060405180807f617070726f766528616464726573732c75696e743235362900000000000000008152506018019050604051809103902060405180807f6f776e65724f662875696e7432353629000000000000000000000000000000008152506010019050604051809103902060405180807f62616c616e63654f6628616464726573732900000000000000000000000000008152506012019050604051809103902060405180807f746f74616c537570706c79282900000000000000000000000000000000000000815250600d019050604051809103902060405180807f73796d626f6c28290000000000000000000000000000000000000000000000008152506008019050604051809103902060405180807f6e616d6528290000000000000000000000000000000000000000000000000000815250600601905060405180910390201818181818181818187bffffffffffffffffffffffffffffffffffffffffffffffffffffffff1916827bffffffffffffffffffffffffffffffffffffffffffffffffffffffff1916145b9050919050565b610e37612255565b610e3f612269565b60008073ffffffffffffffffffffffffffffffffffffffff16600c60009054906101000a900473ffffffffffffffffffffffffffffffffffffffff1673ffffffffffffffffffffffffffffffffffffffff1614151515610e9e57600080fd5b600c60009054906101000a900473ffffffffffffffffffffffffffffffffffffffff1673ffffffffffffffffffffffffffffffffffffffff1663cb4799f2878787600060405160a001526040518463ffffffff167c010000000000000000000000000000000000000000000000000000000002815260040180848152602001806020018281038252848482818152602001925080828437820191505094505050505060a060405180830381600087803b1515610f5957600080fd5b6102c65a03f11515610f6a57600080fd5b505050604051806080018051906020016040528092508193505050610f8f8282611e4c565b925050509392505050565b6040805190810160405280600b81526020017f536d61727444726f6e657300000000000000000000000000000000000000000081525081565b600360149054906101000a900460ff16151515610fef57600080fd5b610ff93382611ea4565b151561100457600080fd5b61100e8183611f10565b7f8c5be1e5ebec7d5bd14f71427d1e84f3dd0314c0f7b2291e5b200ac8c7c3b925338383604051808473ffffffffffffffffffffffffffffffffffffffff1673ffffffffffffffffffffffffffffffffffffffff1681526020018373ffffffffffffffffffffffffffffffffffffffff1673ffffffffffffffffffffffffffffffffffffffff168152602001828152602001935050505060405180910390a15050565b6000600160068054905003905090565b600360149054906101000a900460ff161515156110dd57600080fd5b600073ffffffffffffffffffffffffffffffffffffffff168273ffffffffffffffffffffffffffffffffffffffff161415151561111957600080fd5b3073ffffffffffffffffffffffffffffffffffffffff168273ffffffffffffffffffffffffffffffffffffffff161415151561115457600080fd5b61115e3382611f66565b151561116957600080fd5b6111738382611ea4565b151561117e57600080fd5b611189838383611fd2565b505050565b600360009054906101000a900473ffffffffffffffffffffffffffffffffffffffff1681565b6000809054906101000a900473ffffffffffffffffffffffffffffffffffffffff1673ffffffffffffffffffffffffffffffffffffffff163373ffffffffffffffffffffffffffffffffffffffff1614151561120f57600080fd5b600073ffffffffffffffffffffffffffffffffffffffff168173ffffffffffffffffffffffffffffffffffffffff161415151561124b57600080fd5b80600360006101000a81548173ffffffffffffffffffffffffffffffffffffffff021916908373ffffffffffffffffffffffffffffffffffffffff16021790555050565b600a6020528060005260406000206000915054906101000a900473ffffffffffffffffffffffffffffffffffffffff1681565b6000809054906101000a900473ffffffffffffffffffffffffffffffffffffffff1673ffffffffffffffffffffffffffffffffffffffff163373ffffffffffffffffffffffffffffffffffffffff1614151561131d57600080fd5b600360149054906101000a900460ff16151561133857600080fd5b6000600360146101000a81548160ff021916908315150217905550565b6000809054906101000a900473ffffffffffffffffffffffffffffffffffffffff1673ffffffffffffffffffffffffffffffffffffffff163373ffffffffffffffffffffffffffffffffffffffff1614806113fd5750600160009054906101000a900473ffffffffffffffffffffffffffffffffffffffff1673ffffffffffffffffffffffffffffffffffffffff163373ffffffffffffffffffffffffffffffffffffffff16145b806114555750600260009054906101000a900473ffffffffffffffffffffffffffffffffffffffff1673ffffffffffffffffffffffffffffffffffffffff163373ffffffffffffffffffffffffffffffffffffffff16145b806114ad5750600360009054906101000a900473ffffffffffffffffffffffffffffffffffffffff1673ffffffffffffffffffffffffffffffffffffffff163373ffffffffffffffffffffffffffffffffffffffff16145b15156114b857600080fd5b600560009054906101000a900463ffffffff1663ffffffff16811015156114de57600080fd5b8060048190555050565b600360149054906101000a900460ff1681565b60006007600083815260200190815260200160002060009054906101000a900473ffffffffffffffffffffffffffffffffffffffff169050600073ffffffffffffffffffffffffffffffffffffffff168173ffffffffffffffffffffffffffffffffffffffff161415151561156f57600080fd5b919050565b6000600860008373ffffffffffffffffffffffffffffffffffffffff1673ffffffffffffffffffffffffffffffffffffffff168152602001908152602001600020549050919050565b60045481565b60076020528060005260406000206000915054906101000a900473ffffffffffffffffffffffffffffffffffffffff1681565b600260009054906101000a900473ffffffffffffffffffffffffffffffffffffffff1681565b6000809054906101000a900473ffffffffffffffffffffffffffffffffffffffff1673ffffffffffffffffffffffffffffffffffffffff163373ffffffffffffffffffffffffffffffffffffffff1614806116c45750600160009054906101000a900473ffffffffffffffffffffffffffffffffffffffff1673ffffffffffffffffffffffffffffffffffffffff163373ffffffffffffffffffffffffffffffffffffffff16145b8061171c5750600260009054906101000a900473ffffffffffffffffffffffffffffffffffffffff1673ffffffffffffffffffffffffffffffffffffffff163373ffffffffffffffffffffffffffffffffffffffff16145b806117745750600360009054906101000a900473ffffffffffffffffffffffffffffffffffffffff1673ffffffffffffffffffffffffffffffffffffffff163373ffffffffffffffffffffffffffffffffffffffff16145b151561177f57600080fd5b600360149054906101000a900460ff1615151561179b57600080fd5b6001600360146101000a81548160ff021916908315150217905550565b6117c0612294565b60006117ca612294565b60008060006117d887611574565b9450600085141561180a5760006040518059106117f25750595b908082528060200260200182016040525095506118e5565b846040518059106118185750595b908082528060200260200182016040525093506118336110b1565b925060009150600190505b82811115156118e1578673ffffffffffffffffffffffffffffffffffffffff166007600083815260200190815260200160002060009054906101000a900473ffffffffffffffffffffffffffffffffffffffff1673ffffffffffffffffffffffffffffffffffffffff1614156118d4578084838151811015156118bd57fe5b906020019060200201818152505081806001019250505b808060010191505061183e565b8395505b5050505050919050565b6040805190810160405280600281526020017f534400000000000000000000000000000000000000000000000000000000000081525081565b6000809054906101000a900473ffffffffffffffffffffffffffffffffffffffff1681565b6000809054906101000a900473ffffffffffffffffffffffffffffffffffffffff1673ffffffffffffffffffffffffffffffffffffffff163373ffffffffffffffffffffffffffffffffffffffff161415156119a857600080fd5b600073ffffffffffffffffffffffffffffffffffffffff168173ffffffffffffffffffffffffffffffffffffffff16141515156119e457600080fd5b80600160006101000a81548173ffffffffffffffffffffffffffffffffffffffff021916908373ffffffffffffffffffffffffffffffffffffffff16021790555050565b600360149054906101000a900460ff16151515611a4457600080fd5b600073ffffffffffffffffffffffffffffffffffffffff168273ffffffffffffffffffffffffffffffffffffffff1614151515611a8057600080fd5b3073ffffffffffffffffffffffffffffffffffffffff168273ffffffffffffffffffffffffffffffffffffffff1614151515611abb57600080fd5b600b60009054906101000a900473ffffffffffffffffffffffffffffffffffffffff1673ffffffffffffffffffffffffffffffffffffffff168273ffffffffffffffffffffffffffffffffffffffff1614151515611b1857600080fd5b611b223382611ea4565b1515611b2d57600080fd5b611b38338383611fd2565b5050565b600c60009054906101000a900473ffffffffffffffffffffffffffffffffffffffff1681565b6000809054906101000a900473ffffffffffffffffffffffffffffffffffffffff1673ffffffffffffffffffffffffffffffffffffffff163373ffffffffffffffffffffffffffffffffffffffff16141515611bbd57600080fd5b600073ffffffffffffffffffffffffffffffffffffffff168173ffffffffffffffffffffffffffffffffffffffff1614151515611bf957600080fd5b80600260006101000a81548173ffffffffffffffffffffffffffffffffffffffff021916908373ffffffffffffffffffffffffffffffffffffffff16021790555050565b600160009054906101000a900473ffffffffffffffffffffffffffffffffffffffff1681565b60096020528060005260406000206000915054906101000a900473ffffffffffffffffffffffffffffffffffffffff1681565b600160009054906101000a900473ffffffffffffffffffffffffffffffffffffffff1673ffffffffffffffffffffffffffffffffffffffff163373ffffffffffffffffffffffffffffffffffffffff16141515611cf257600080fd5b80600c60006101000a81548173ffffffffffffffffffffffffffffffffffffffff021916908373ffffffffffffffffffffffffffffffffffffffff16021790555050565b6000809054906101000a900473ffffffffffffffffffffffffffffffffffffffff1673ffffffffffffffffffffffffffffffffffffffff163373ffffffffffffffffffffffffffffffffffffffff16141515611d9157600080fd5b600073ffffffffffffffffffffffffffffffffffffffff168173ffffffffffffffffffffffffffffffffffffffff1614151515611dcd57600080fd5b806000806101000a81548173ffffffffffffffffffffffffffffffffffffffff021916908373ffffffffffffffffffffffffffffffffffffffff16021790555050565b600b60009054906101000a900473ffffffffffffffffffffffffffffffffffffffff1681565b600560009054906101000a900463ffffffff1681565b611e54612255565b611e5c612255565b60008084604051805910611e6d5750595b9080825280601f01601f19166020018201604052509250602083019150859050611e9882828761220a565b82935050505092915050565b60008273ffffffffffffffffffffffffffffffffffffffff166007600084815260200190815260200160002060009054906101000a900473ffffffffffffffffffffffffffffffffffffffff1673ffffffffffffffffffffffffffffffffffffffff1614905092915050565b806009600084815260200190815260200160002060006101000a81548173ffffffffffffffffffffffffffffffffffffffff021916908373ffffffffffffffffffffffffffffffffffffffff1602179055505050565b60008273ffffffffffffffffffffffffffffffffffffffff166009600084815260200190815260200160002060009054906101000a900473ffffffffffffffffffffffffffffffffffffffff1673ffffffffffffffffffffffffffffffffffffffff1614905092915050565b600860008373ffffffffffffffffffffffffffffffffffffffff1673ffffffffffffffffffffffffffffffffffffffff16815260200190815260200160002060008154809291906001019190505550816007600083815260200190815260200160002060006101000a81548173ffffffffffffffffffffffffffffffffffffffff021916908373ffffffffffffffffffffffffffffffffffffffff160217905550600073ffffffffffffffffffffffffffffffffffffffff168373ffffffffffffffffffffffffffffffffffffffff1614151561216657600860008473ffffffffffffffffffffffffffffffffffffffff1673ffffffffffffffffffffffffffffffffffffffff1681526020019081526020016000206000815480929190600190039190505550600a600082815260200190815260200160002060006101000a81549073ffffffffffffffffffffffffffffffffffffffff02191690556009600082815260200190815260200160002060006101000a81549073ffffffffffffffffffffffffffffffffffffffff02191690555b7fddf252ad1be2c89b69c2b068fc378daa952ba7f163c4a11628f55a4df523b3ef838383604051808473ffffffffffffffffffffffffffffffffffffffff1673ffffffffffffffffffffffffffffffffffffffff1681526020018373ffffffffffffffffffffffffffffffffffffffff1673ffffffffffffffffffffffffffffffffffffffff168152602001828152602001935050505060405180910390a1505050565b60005b602082101515612232578251845260208401935060208301925060208203915061220d565b6001826020036101000a0390508019835116818551168181178652505050505050565b602060405190810160405280600081525090565b6080604051908101604052806004905b60008019168152602001906001900390816122795790505090565b6020604051908101604052806000815250905600a165627a7a7230582062147a77f43c319f2e89b9291be544a45c49c7e3d845689f3c49402a6be591460029",
  "source": "pragma solidity ^0.4.17;\r\n\r\nimport 'contracts/EtherWarzRoleManagement.sol';\r\nimport 'contracts/Tokens/ERC721.sol';\r\nimport 'contracts/Auctions/Auction.sol';\r\n\r\n///Some of the below contracts were adapted from those designed for use in the Cryptokitties DAP. Go check it out!  (https://www.cryptokitties.co/)\r\n///Many thanks to Axiom Zen (https://www.axiomzen.co) and the Loom Network (https://loomx.io/) for their excellent work \r\n///pushing the boundries of Blockchain DAP development and providing excellent tutorials and learning resources for new DAP developers.\r\n\r\n///@title Base contract for EtherWarz. Holds all common structs, events and base variables.\r\n///@author Streamvade\r\n///@dev See the EtherWarz contract documentation to understand how the various contract facets are linked and organised.\r\ncontract SmartDroneBase is EtherWarzRoleManagement {\r\n    /*** EVENTS ***/\r\n    \r\n    /// @dev The Construct event is fired whenever a new Smart Drone comes into existence.\r\n    event Construct(address owner, uint256 droneId, uint256 lineId, uint256 sourceAI);\r\n\r\n    /// @dev Transfer event as defined in current draft of ERC721. Emitted every time a Smart Drones\r\n    /// ownership is assigned, including self-duplication.\r\n    event Transfer(address from, address to, uint256 tokenId);\r\n\r\n    /*** DATA TYPES ***/\r\n    /// @dev The main Smart Drone struct. Every Smart Drone in EtherWarz is represented by a copy of this structure.\r\n    struct SmartDrone {\r\n        //The Smart Drones \"AI\" is stored in these 256-bits. The AI will change as the Smart Drone looses fights. Self-duplicating drones\r\n        //create a duplicate with an exact copy of their own sourceAI.\r\n        bytes32 sourceAI;\r\n        //The Smart Drones \"AI\" is stored in these 256-bits. The AI will change as the Smart Drone looses fights. Self-duplicating drones\r\n        //create a duplicate with an exact copy of their own sourceAI.\r\n        bytes32 oldSourceAI;\r\n        //The lineId of the Smart Drone defines is physical construction. This will be defined when a new Smart Drone \r\n        //is constructed.\r\n        bytes32 lineId;\r\n        // The timestamp from the block when this Smart Drone came into existence.\r\n        uint64 birthTime;\r\n        // The next timestamp a Smart Drone will be able to fight again.\r\n        uint64 cooldownEndBlock;\r\n        //The total number of victories the Smart Drone has won.\r\n        uint32 victories;\r\n        //The total number of losses the Smart Drone has suffered.\r\n        uint32 defeats;\r\n        \r\n    }\r\n\r\n    /*** CONSTANTS ***/\r\n\r\n    // An approximation of currently how many seconds are in-between blocks.\r\n    uint256 public secondsPerBlock = 15;\r\n    // Fight cooldown times\r\n    uint32 public fightCooldown = uint32(5 minutes);\r\n\r\n\r\n    /*** STORAGE  ***/\r\n    /// @dev An array containing the SmartDrone struct for all Smart Drones in existence. ID 0 is the master production facility from which all new production lines are created.\r\n    SmartDrone[] smartDrones;\r\n\r\n    ///@dev A mapping from drone IDs to the address that owns them. All drones have\r\n    /// some valid owner address, even gen0 drones are created with a non-sero owner.\r\n    mapping(uint256=>address) public droneIndexToOwner;\r\n\r\n    ///@dev A mapping from owner address to count of tokens that address owns.\r\n    // Used internally inside balanceOf() to resolve ownership count.\r\n    mapping(address=>uint256) ownershipTokenCount;\r\n\r\n    ///@dev A mapping from DroneIDs to an address that has been approved to call\r\n    /// transferFrom(). Each Drone can only have one approved address for transfer\r\n    /// at any time. A zero value means no approval is outstanding.\r\n    mapping (uint256 => address) public droneIndexToApproved;\r\n\r\n    ///@dev A mapping from DroneIDs to an address that has been approved to use\r\n    /// this Drone for fighting via fightWith(). Each drone can only have one approved\r\n    /// address for fighting at any time. A zero value means no approval is outstanding.\r\n    mapping (uint256 => address) public fightAllowedToAddress;\r\n\r\n    ///@dev The address of the ClockAuction contract that handles sales of Drones. This\r\n    /// same contract handles both peer-to-peer sales as well as the gen0 sales which are \r\n    /// initiated every 15 minutes.\r\n    SaleClockAuction public saleAuction;\r\n\r\n    ///@dev Assigns ownership of a specific Drone to an address.\r\n    function _transfer(address _from, address _to, uint256 _tokenId)internal {\r\n        //Since the number of drones is capped to 2^32 we can't overflow this\r\n        ownershipTokenCount[_to]++;\r\n        // transfer ownership\r\n        droneIndexToOwner[_tokenId] = _to;\r\n        //When creating new drones _from is 0x0, but we can't account that address!\r\n        if (_from!=address(0)) {\r\n            ownershipTokenCount[_from]--;\r\n            //once the drone is transferred also clear fight allowances\r\n            delete fightAllowedToAddress[_tokenId];\r\n            // clear any previously approved ownership exchange\r\n            delete droneIndexToApproved[_tokenId];\r\n        }\r\n        //Emit the transfer event.\r\n        Transfer(_from,_to,_tokenId);\r\n    }\r\n\r\n    ///@dev An internal method that creates a new Smart Drone and stores it. This\r\n    /// method doesn't do any checking and should only be called when the \r\n    /// input data is known to be valid. Will generate both a Constructed event and a Transfer event.\r\n    ///@param _sourceAI The AI that will be used to determin how the SmartDrone fights\r\n    ///@param _lineId The physical construction line used to determin the SmartDrones physical charactersitics.\r\n    ///@param _owner The initial owner of the drone, must be non-zero (except for the Construcion Line, ID 0)\r\n    function _createDrone(\r\n        bytes32 _sourceAI,\r\n        bytes32 _lineId,\r\n        address _owner\r\n    )\r\n        internal\r\n        returns (uint)\r\n    {\r\n        //The requires are not strictly necessary, our calling code should make\r\n        //sure that these conditions are never broken. However! _createDrone() is already\r\n        // an expensive call (for storage), and it doesn't hurt to be especially careful\r\n        // to ensure our data structures are always valid.\r\n        require(_lineId == bytes32(_lineId));\r\n\r\n        SmartDrone memory _smartDrone = SmartDrone({sourceAI:_sourceAI,oldSourceAI:_sourceAI, birthTime:uint64(now),cooldownEndBlock:0,victories:0,defeats:0,lineId:_lineId});\r\n        uint256 newDroneID = smartDrones.push(_smartDrone) - 1;\r\n        //Just check to ensure we haven't created more than 4 billion drones!\r\n        require(newDroneID == uint256(uint32(newDroneID)));\r\n        // emit the construction event\r\n        Construct(\r\n            _owner,\r\n            newDroneID,\r\n            uint256(_smartDrone.lineId),\r\n            uint256(_smartDrone.sourceAI)\r\n        );\r\n\r\n        //This will assign ownership, and also emit the Transfer event as\r\n        //per ERC721 draft\r\n        _transfer(0, _owner, newDroneID);\r\n        return newDroneID;\r\n    }\r\n\r\n    // Any Manager can fix how many seconds per blocks are currently observed.\r\n    function setSecondsPerBlock(uint256 secs) external onlyManager {\r\n        require(secs<fightCooldown);\r\n        secondsPerBlock = secs;\r\n    }\r\n}\r\n\r\n/// @title The external contract that is responsible for generating metadata for drones,\r\n///  it has one function that will return the data as bytes.\r\ncontract ERC721Metadata {\r\n    /// @dev Given a token Id, returns a byte array that is supposed to be converted into string.\r\n    function getMetadata(uint256 _tokenId, string) public pure returns (bytes32[4] buffer, uint256 count) {\r\n        if (_tokenId == 1) {\r\n            buffer[0] = \"Hello World! :D\";\r\n            count = 15;\r\n        } else if (_tokenId == 2) {\r\n            buffer[0] = \"I would definitely choose a medi\";\r\n            buffer[1] = \"um length string.\";\r\n            count = 49;\r\n        } else if (_tokenId == 3) {\r\n            buffer[0] = \"Lorem ipsum dolor sit amet, mi e\";\r\n            buffer[1] = \"st accumsan dapibus augue lorem,\";\r\n            buffer[2] = \" tristique vestibulum id, libero\";\r\n            buffer[3] = \" suscipit varius sapien aliquam.\";\r\n            count = 128;\r\n        }\r\n    }\r\n}\r\n\r\n/// @title No, you don't get to see this :P\r\ncontract AIScienceInterface {\r\n    ///@dev simply a boolean to indicate this is the contract we expect to be\r\n    function isAIScience() public pure returns (bool) {\r\n        return true;\r\n    }\r\n\r\n    function generateNew() public pure returns (bytes32) {\r\n       bytes32 generatedAiSource = \"0\";\r\n       \r\n       return generatedAiSource; \r\n    }\r\n}\r\n\r\n///@title Manages Drone ownership. Compliant with the draft version of ERC-721.\r\n///@author Streamvade\r\n///@dev See the EtherWarzCore documentation to understand how the various contract facets are arranged.\r\ncontract SmartDroneOwnership is SmartDroneBase, ERC721 {\r\n    \r\n    ///@notice Name and symbol of the non fungible token, as defined in ERC721\r\n    string public constant name = \"SmartDrones\";\r\n    string public constant symbol = \"SD\";\r\n\r\n    // The contract that will return kitty metadata\r\n    ERC721Metadata public erc721Metadata;\r\n\r\n    bytes4 constant InterfaceSignature_ERC165 = bytes4(keccak256('supportsInterface(bytes4)'));\r\n\r\n    bytes4 constant InterfaceSignature_ERC721 = bytes4(keccak256('name()')) ^ bytes4(keccak256('symbol()')) ^ bytes4(keccak256('totalSupply()')) ^ bytes4(keccak256('balanceOf(address)')) ^ bytes4(keccak256('ownerOf(uint256)')) ^ bytes4(keccak256('approve(address,uint256)')) ^ bytes4(keccak256('transfer(address,uint256)')) ^ bytes4(keccak256('transferFrom(address,address,uint256)')) ^ bytes4(keccak256('tokensOfOwner(address)')) ^ bytes4(keccak256('tokenMetadata(uint256,string)'));\r\n\r\n    /// @notice Introspection interface as per ERC-165 (https://github.com/ethereum/EIPs/issues/165).\r\n    ///  Returns true for any standardized interfaces implemented by this contract. We implement\r\n    ///  ERC-165 (obviously!) and ERC-721.\r\n    function supportsInterface(bytes4 _interfaceID) external view returns (bool) {\r\n        //DEBUG ONLY\r\n        //require((InterfaceSignature_ERC165 == 0x01ffc9a7) && (InterfaceSignature_ERC721 == 0x9a20483d));\r\n\r\n        return ((_interfaceID == InterfaceSignature_ERC165) || (_interfaceID == InterfaceSignature_ERC721));\r\n    }\r\n\r\n    ///@dev Set the address of the sibling contract that tracks metadata.\r\n    /// Contract Manager only.\r\n    function setMetadataAddress(address _contractAddress) public onlyConManager {\r\n        erc721Metadata = ERC721Metadata(_contractAddress);\r\n    }\r\n\r\n    // Internal utility functions: These functions all assume that their input arguments\r\n    // are valid. We leave it to public methods to sanitize their inputs and follow\r\n    // the required logic.\r\n\r\n    ///@dev Checks if a given address is the current owner of a particular Drone.\r\n    ///@param _claimant the address we are validating against.\r\n    ///@param _tokenId drone id, only valid when > 0\r\n    function _owns(address _claimant, uint256 _tokenId) internal view returns (bool) {\r\n        return droneIndexToOwner[_tokenId] == _claimant;\r\n    }\r\n  \r\n    /// @dev Checks if a given address currently has transferApproval for a particular Drone.\r\n    /// @param _claimant the address we are confirming drone is approved for.\r\n    /// @param _tokenId drone id, only valid when >0\r\n    function _approvedFor(address _claimant, uint256 _tokenId) internal view returns (bool) {\r\n        return droneIndexToApproved[_tokenId] == _claimant;\r\n    }\r\n    /// @dev Marks an address as being approved for transferFrom(), overwriting any previous\r\n    ///  approval. Setting _approved to address(0) clears all transfer approval.\r\n    ///  NOTE: _approve() does NOT send the Approval event. This is intentional because\r\n    ///  _approve() and transferFrom() are used together for putting Drones on auction, and\r\n    ///  there is no value in spamming the log with Approval events in that case.\r\n    function _approve(uint256 _tokenId, address _approved) internal {\r\n        droneIndexToApproved[_tokenId] = _approved;\r\n    }\r\n\r\n    /// @notice Returns the number of Drones owned by a specific address.\r\n    /// @param _owner The owner address to check.\r\n    /// @dev Required for ERC-721 compliance\r\n    function balanceOf(address _owner) public view returns (uint256 count) {\r\n        return ownershipTokenCount[_owner];\r\n    }\r\n\r\n    /// @notice Transfers a Drone to another address. May result in drone loss if the target contract is not aware of ERC-721.\r\n    /// ~param _to The address of the recipient, can be a user or contract.\r\n    /// @param _tokenId The ID of the Drone to transfer.\r\n    /// @dev Required for ERC-721 compliance.\r\n    function transfer(address _to,uint256 _tokenId) external whenNotPaused {\r\n        // Safety check to prevent against an unexpected 0x0 default.\r\n        require(_to != address(0));\r\n        //This contract should never own any drones.\r\n        require(_to != address(this));\r\n        //Auction contracts should only take ownership of drones through the allow + transferFrom flow.\r\n        require(_to != address(saleAuction));\r\n\r\n        //You can only send you own drone.\r\n        require(_owns(msg.sender,_tokenId));\r\n\r\n        //Reassign ownership, clear pending approvals, emit Transfer event\r\n        _transfer(msg.sender,_to,_tokenId);\r\n    }\r\n\r\n    /// @notice Grant another address the right to transfer a specific Drone via\r\n    /// transferFrom(). This is the preferred flow for transfering NFTs to contracts.\r\n    /// @param _to The address to be granted transfer approval. Pass address(0) to\r\n    /// clear all approvals.\r\n    /// @param _tokenId The ID of the Drone that can be transferred if this call succeeds.\r\n    /// @dev Required for ERC-721 compliance.\r\n    function approve(address _to,uint256 _tokenId) external whenNotPaused {\r\n        //Only an owner can grant transfer approval.\r\n        require(_owns(msg.sender, _tokenId));\r\n\r\n        //Register the approval (replacing any previous approval).\r\n        _approve(_tokenId, _to);\r\n\r\n        //Emit approval event.\r\n        Approval(msg.sender,_to,_tokenId);\r\n    }\r\n\r\n    /// @notice Transfer a Drone owned by another address, for which the calling address\r\n    /// has previously been granted transfer approval by the owner.\r\n    /// @param _from The address that owns the Drone to be transfered.\r\n    /// @param _to The address that should take ownership of the Drone. Can be any address, including the caller.\r\n    /// @param _tokenId The ID of the Drone to be transferred.\r\n    /// @dev Required for ERC-721 compliance.\r\n    function transferFrom(address _from,address _to,uint256 _tokenId) external whenNotPaused {\r\n        // Safety check to prevent against an unexpected 0x0 default.\r\n        require(_to != address(0));\r\n        //Disallow transfers to this contract to prevent accidental misuse.\r\n        require(_to != address(this));\r\n        //Check for approval and valid ownership\r\n        require(_approvedFor(msg.sender, _tokenId));\r\n        require(_owns(_from, _tokenId));\r\n        //Reassign ownership (also clears pending approvals and emits Transfer event).\r\n        _transfer(_from, _to, _tokenId);\r\n    }\r\n\r\n    ///@notice Returns the total number of Smart Drones currently in existence.\r\n    /// @dev Required for ERC-721 compliance.\r\n    function totalSupply() public view returns(uint) {\r\n        return smartDrones.length - 1;\r\n    }\r\n    \r\n    ///@notice Returns the address currently assigned ownership of a given Drone.\r\n    /// @dev Required for ERC-721 compliance.\r\n    function ownerOf(uint256 _tokenId) external view returns(address owner) {\r\n        owner = droneIndexToOwner[_tokenId];\r\n        require(owner != address(0));\r\n    }\r\n\r\n    /// @notice Returns a list of all Drone IDs assigned to an address.\r\n    /// @param _owner The owner whose Drones we are interested in.\r\n    /// @dev This method MUST NEVER be called by smart contract code. Its expensive and returns\r\n    ///  a value that is only supported by web3 calls, not contract-to-contract calls.\r\n    function tokensOfOwner(address _owner) external view returns(uint256[] ownerTokens) {\r\n        uint256 tokenCount = balanceOf(_owner);\r\n\r\n        if (tokenCount == 0) {\r\n            // Return an empty array\r\n            return new uint256[](0);\r\n        } else {\r\n            uint256[] memory result = new uint256[](tokenCount);\r\n            uint256 totalDrones = totalSupply();\r\n            uint256 resultIndex = 0;\r\n\r\n            // We count on the fact that all drones have IDs starting at 1 and increasing\r\n            // sequentially up to the totalDrone count.\r\n            uint256 droneId;\r\n\r\n            for (droneId = 1; droneId <= totalDrones; droneId++) {\r\n                if (droneIndexToOwner[droneId] == _owner) {\r\n                    result[resultIndex] = droneId;\r\n                    resultIndex++;\r\n                }\r\n            }\r\n            return result;\r\n        }\r\n        \r\n    }\r\n    \r\n    /// @dev Adapted from memcpy() by @arachnid (Nick Johnson <arachnid@notdot.net>)\r\n    ///  This method is licenced under the Apache License.\r\n    ///  Ref: https://github.com/Arachnid/solidity-stringutils/blob/2f6ca9accb48ae14c66f1437ec50ed19a0616f78/strings.sol\r\n    function _memcpy(uint _dest, uint _src, uint _len) private pure {\r\n        // Copy word-length chunks while possible\r\n        for (; _len >= 32; _len -= 32) {\r\n            assembly {\r\n                mstore(_dest, mload(_src))\r\n            }\r\n            _dest += 32;\r\n            _src += 32;\r\n        }\r\n\r\n        // Copy remaining bytes\r\n        uint256 mask = 256 ** (32 - _len) - 1;\r\n        assembly {\r\n            let srcpart := and(mload(_src), not(mask))\r\n            let destpart := and(mload(_dest), mask)\r\n            mstore(_dest, or(destpart, srcpart))\r\n        }\r\n    }\r\n\r\n    /// @dev Adapted from toString(slice) by @arachnid (Nick Johnson <arachnid@notdot.net>)\r\n    ///  This method is licenced under the Apache License.\r\n    ///  Ref: https://github.com/Arachnid/solidity-stringutils/blob/2f6ca9accb48ae14c66f1437ec50ed19a0616f78/strings.sol\r\n    function _toString(bytes32[4] _rawBytes, uint256 _stringLength) private pure returns (string) {\r\n        var outputString = new string(_stringLength);\r\n        uint256 outputPtr;\r\n        uint256 bytesPtr;\r\n\r\n        assembly {\r\n            outputPtr := add(outputString, 32)\r\n            bytesPtr := _rawBytes\r\n        }\r\n\r\n        _memcpy(outputPtr, bytesPtr, _stringLength);\r\n\r\n        return outputString;\r\n    }\r\n\r\n    /// @notice Returns a URI pointing to a metadata package for this token conforming to\r\n    ///  ERC-721 (https://github.com/ethereum/EIPs/issues/721)\r\n    /// @param _tokenId The ID number of the Drone whose metadata should be returned.\r\n    function tokenMetadata(uint256 _tokenId, string _preferredTransport) external view returns (string infoUrl) {\r\n        require(erc721Metadata != address(0));\r\n        bytes32[4] memory buffer;\r\n        uint256 count;\r\n        (buffer,count) = erc721Metadata.getMetadata(_tokenId, _preferredTransport);\r\n\r\n        return _toString(buffer, count);\r\n    }\r\n}\r\n\r\n///@title A facet of EtherWarzCore that manages Drone Manufacturing\r\ncontract SmartDroneManufacturing is SmartDroneOwnership {\r\n\r\n    ///@dev The address of the sibling contract that is used to initiate a new sourceAI\r\n    AIScienceInterface public aIScience;\r\n\r\n    ///@dev Update the address of the aIScience contract. Can only be called by the Contract Manager.\r\n    ///@param _address An address of a aIScience contract instance to be used from this point forward.\r\n    function setaIScienceAddress(address _address) external onlyConManager {\r\n\r\n        AIScienceInterface candidateContract = AIScienceInterface(_address);\r\n\r\n        // NOTE: verify that a contract is what we expect\r\n        require(candidateContract.isAIScience());\r\n\r\n        // Set the new contract address\r\n        aIScience = candidateContract; \r\n    }\r\n\r\n    function constructDrone(bytes32 _lineId) external whenNotPaused returns(uint256) {\r\n        //Call the AI generation operation\r\n        bytes32 newAISource = aIScience.generateNew();\r\n\r\n        // Make the new drone!\r\n        address owner = tokManagerAddress;\r\n        uint256 droneID = _createDrone(newAISource, _lineId, owner);\r\n        return droneID;\r\n    }\r\n}\r\n\r\n/// @title Handles creating auctions for sale of Drones.\r\ncontract SmartDroneAuction is SmartDroneManufacturing {\r\n\r\n    /// @dev Sets the reference to the sale auction.\r\n    /// @param _address - Address opf sale contract.\r\n    function setSaleAuctionAddress(address _address) external onlyConManager {\r\n        SaleClockAuction candidateContract = SaleClockAuction(_address);\r\n\r\n        //NOTE:verify that a contract is what we expect\r\n        require(candidateContract.isSaleClockAuction());\r\n\r\n        //Set the new contract address\r\n        saleAuction = candidateContract;\r\n    }\r\n\r\n    // @dev Put a Drone up for auction\r\n    function createSaleAUction(uint256 _droneId, uint256 _startingPrice, uint256 _endingPrice, uint256 _duration) external whenNotPaused {\r\n        // Auction contract checks input sizes\r\n        // If drone is already on any auction, this will throw\r\n        // because it will be owned by the action contract.\r\n        require(_owns(msg.sender,_droneId));\r\n        _approve(_droneId, saleAuction);\r\n        //Sale auction throes if inputs are invalid and clears\r\n        //transfer and sire approval after escrpowing the drone\r\n        saleAuction.createAuction(_droneId,_startingPrice,_endingPrice,_duration,msg.sender);\r\n    }\r\n\r\n    /// @dev Transfers the balance of the sale auction contract\r\n    /// to the SmartDroneCore contract. \r\n    function withdrawAuctionBalances() external onlyManager {\r\n        saleAuction.withdrawBalance();\r\n    }\r\n}\r\n\r\ncontract SmartDroneMinting is SmartDroneAuction {\r\n\r\n    //Constants for manufacturing line auctions\r\n    uint256 public constant MANLINE_STARTING_PRICE = 10 finney;\r\n    uint256 public constant MANLINE_AUCTION_DURATION = 1 days;\r\n\r\n    ///@dev Allows us to create promo drones and assign them directly to individuals\r\n    /// @param _sourceAI the seed value for the Drones simple AI\r\n    /// @param _lineId the physical structure of the Drone to be created, any value is accepted\r\n    /// @param _owner the future owner of the created Drone. Default to contract Token Manager\r\n    function createPromoDrone(bytes32 _sourceAI, bytes32 _lineId, address _owner) external onlyTokManager {\r\n        address droneOwner = _owner;\r\n        if(droneOwner == address(0)){\r\n            droneOwner = tokManagerAddress;\r\n        }\r\n        _createDrone(_sourceAI, _lineId, _owner);\r\n    }\r\n\r\n    ///@dev Creates a new SmartDrone with the given AI/Line combo and\r\n    ///creates an auction for it\r\n    function createSmartDroneAuction(bytes32 _sourceAI, bytes32 _lineId) external onlyTokManager {\r\n\r\n        uint256 droneId = _createDrone(_sourceAI,_lineId,address(this));\r\n        _approve(droneId, saleAuction);\r\n\r\n        saleAuction.createAuction(droneId,_computeNextAuctionPrice(),0,MANLINE_AUCTION_DURATION,address(this));\r\n    }\r\n\r\n    function _computeNextAuctionPrice() internal view returns(uint256) {\r\n        uint256 avePrice = saleAuction.averageManufacturingSalePrice();\r\n\r\n        //Sanity check to ensure we don't overflow arithmetic\r\n        require(avePrice == uint256(uint128(avePrice)));\r\n\r\n        uint256 nextPrice = avePrice + (avePrice / 2);\r\n\r\n        //We never auction for less than starting price\r\n        if(nextPrice < MANLINE_STARTING_PRICE) {\r\n            nextPrice = MANLINE_STARTING_PRICE;\r\n        }\r\n\r\n        return nextPrice;\r\n    }\r\n}\r\n\r\n//@title EtherWarz: Combat between Smart Drones that learn from their losses, on the Ethereum blockchain.\r\n///@author StreamVade\r\n///@dev The main EtherWarz contract, keeps tracks of drones to prevent rogue AI armageddon.\r\ncontract SmartDroneCore is SmartDroneMinting {\r\n    //This is the main EtherWarz contract and the endpoint of the core inheritence. It works in parallel to the SourceAI, Combat and Auction\r\n    //contract collections to create the Blockchain portion of the EtherWarz game.\r\n\r\n    //Set in case the core contract is broken and an upgrade is required\r\n    address public newContractAddress;\r\n\r\n    ///@notice Creates the main EtherWarz smart contract instance.\r\n    function SmartDroneCore() public {\r\n        //Starts paused.\r\n        paused = true;\r\n\r\n        // the creator of the contract is the initial security manager\r\n        secManagerAddress = msg.sender;\r\n\r\n        // the creator of the contract is also the initial token manager\r\n        tokManagerAddress = msg.sender;\r\n    }\r\n\r\n    /// @dev Used to mark the smart contract as upgraded, in case there is a serious\r\n    /// breaking bug. This method does nothing but keep track of the new contracts and\r\n    /// emit a message indicating that the new address is set. It's up to clients of this\r\n    /// contract to update to the new contract address in that case. (This contract will\r\n    /// be paused indefinitely if such an upgrade takes place.)\r\n    function setNewAddress(address _v2Address) external onlyConManager whenPaused {\r\n        // See README.md for upgrade plan\r\n        newContractAddress = _v2Address;\r\n        ContractUpgrade(_v2Address);\r\n    }\r\n\r\n    ///@dev Reject all Ether from  being sent here, unless it's from one of\r\n    // our designated contracts\r\n    function() external payable {\r\n        require(\r\n            msg.sender == address(saleAuction)\r\n        );\r\n    }\r\n\r\n    /// @notice Returns all the relevant information about a specific Smart Drone.\r\n    /// @param _id The ID of the Drone of interest.\r\n    function getDrone(uint256 _id) external view returns (uint256 sourceAI, uint256 birthTime, uint256 cooldownEndBlock, uint256 victories, uint256 defeats, uint256 lineId)\r\n    {\r\n        SmartDrone storage drone = smartDrones[_id];\r\n        sourceAI = uint256(drone.sourceAI);\r\n        birthTime = uint256(drone.birthTime);\r\n        cooldownEndBlock = uint256(drone.cooldownEndBlock);\r\n        victories = uint256(drone.victories);\r\n        defeats = uint256(drone.defeats);\r\n        lineId = uint256(drone.lineId);\r\n    }\r\n\r\n    //@dev Override unpause so it requires all external contract addresses\r\n    /// to be set before contract can be unpaused. Also, we can't have\r\n    /// newContractAddress set either, because then the contract was upgraded.\r\n    /// @notice This is public rather than external so we can call super.unpause\r\n    /// without using an expensive CALL.\r\n    function unpause() public onlySecManager whenPaused {\r\n        require(saleAuction != address(0));\r\n        require(aIScience != address(0));\r\n        require(newContractAddress == address(0));\r\n\r\n        //Actually unpause the contract.\r\n        super.unpause();\r\n    }\r\n\r\n    // @dev Allows the Ethereum manager to capture the balance available to the contract.\r\n    function withdrawBalance() external onlyEthManager {\r\n        ethManagerAddress.send(this.balance);\r\n    }\r\n}\r\n",
  "sourcePath": "E:\\Blockchain\\Development\\Ethereum\\Projects\\EtherStrike\\contracts\\EtherWarzCore.sol",
  "compiler": {
    "name": "solc",
    "version": "0.4.18+commit.9cf6e910.Emscripten.clang"
  },
  "schemaVersion": "1.0.1",
  "updatedAt": "2018-01-03T21:38:00.479Z"
}