{
  "contractName": "SmartDroneBase",
  "abi": [
    {
      "constant": true,
      "inputs": [],
      "name": "tokManagerAddress",
      "outputs": [
        {
          "name": "",
          "type": "address"
        }
      ],
      "payable": false,
      "stateMutability": "view",
      "type": "function"
    },
    {
      "constant": false,
      "inputs": [
        {
          "name": "_newTokManager",
          "type": "address"
        }
      ],
      "name": "setTokManager",
      "outputs": [],
      "payable": false,
      "stateMutability": "nonpayable",
      "type": "function"
    },
    {
      "constant": true,
      "inputs": [
        {
          "name": "",
          "type": "uint256"
        }
      ],
      "name": "fightAllowedToAddress",
      "outputs": [
        {
          "name": "",
          "type": "address"
        }
      ],
      "payable": false,
      "stateMutability": "view",
      "type": "function"
    },
    {
      "constant": false,
      "inputs": [],
      "name": "unpause",
      "outputs": [],
      "payable": false,
      "stateMutability": "nonpayable",
      "type": "function"
    },
    {
      "constant": false,
      "inputs": [
        {
          "name": "secs",
          "type": "uint256"
        }
      ],
      "name": "setSecondsPerBlock",
      "outputs": [],
      "payable": false,
      "stateMutability": "nonpayable",
      "type": "function"
    },
    {
      "constant": true,
      "inputs": [],
      "name": "paused",
      "outputs": [
        {
          "name": "",
          "type": "bool"
        }
      ],
      "payable": false,
      "stateMutability": "view",
      "type": "function"
    },
    {
      "constant": true,
      "inputs": [],
      "name": "secondsPerBlock",
      "outputs": [
        {
          "name": "",
          "type": "uint256"
        }
      ],
      "payable": false,
      "stateMutability": "view",
      "type": "function"
    },
    {
      "constant": true,
      "inputs": [
        {
          "name": "",
          "type": "uint256"
        }
      ],
      "name": "droneIndexToOwner",
      "outputs": [
        {
          "name": "",
          "type": "address"
        }
      ],
      "payable": false,
      "stateMutability": "view",
      "type": "function"
    },
    {
      "constant": true,
      "inputs": [],
      "name": "ethManagerAddress",
      "outputs": [
        {
          "name": "",
          "type": "address"
        }
      ],
      "payable": false,
      "stateMutability": "view",
      "type": "function"
    },
    {
      "constant": false,
      "inputs": [],
      "name": "pause",
      "outputs": [],
      "payable": false,
      "stateMutability": "nonpayable",
      "type": "function"
    },
    {
      "constant": true,
      "inputs": [],
      "name": "secManagerAddress",
      "outputs": [
        {
          "name": "",
          "type": "address"
        }
      ],
      "payable": false,
      "stateMutability": "view",
      "type": "function"
    },
    {
      "constant": false,
      "inputs": [
        {
          "name": "_newConManager",
          "type": "address"
        }
      ],
      "name": "setConManager",
      "outputs": [],
      "payable": false,
      "stateMutability": "nonpayable",
      "type": "function"
    },
    {
      "constant": false,
      "inputs": [
        {
          "name": "_newEthManager",
          "type": "address"
        }
      ],
      "name": "setEthManager",
      "outputs": [],
      "payable": false,
      "stateMutability": "nonpayable",
      "type": "function"
    },
    {
      "constant": true,
      "inputs": [],
      "name": "conManagerAddress",
      "outputs": [
        {
          "name": "",
          "type": "address"
        }
      ],
      "payable": false,
      "stateMutability": "view",
      "type": "function"
    },
    {
      "constant": true,
      "inputs": [
        {
          "name": "",
          "type": "uint256"
        }
      ],
      "name": "droneIndexToApproved",
      "outputs": [
        {
          "name": "",
          "type": "address"
        }
      ],
      "payable": false,
      "stateMutability": "view",
      "type": "function"
    },
    {
      "constant": false,
      "inputs": [
        {
          "name": "_newSecManager",
          "type": "address"
        }
      ],
      "name": "setSecManager",
      "outputs": [],
      "payable": false,
      "stateMutability": "nonpayable",
      "type": "function"
    },
    {
      "constant": true,
      "inputs": [],
      "name": "saleAuction",
      "outputs": [
        {
          "name": "",
          "type": "address"
        }
      ],
      "payable": false,
      "stateMutability": "view",
      "type": "function"
    },
    {
      "constant": true,
      "inputs": [],
      "name": "fightCooldown",
      "outputs": [
        {
          "name": "",
          "type": "uint32"
        }
      ],
      "payable": false,
      "stateMutability": "view",
      "type": "function"
    },
    {
      "anonymous": false,
      "inputs": [
        {
          "indexed": false,
          "name": "owner",
          "type": "address"
        },
        {
          "indexed": false,
          "name": "droneId",
          "type": "uint256"
        },
        {
          "indexed": false,
          "name": "lineId",
          "type": "uint256"
        },
        {
          "indexed": false,
          "name": "sourceAI",
          "type": "uint256"
        }
      ],
      "name": "Construct",
      "type": "event"
    },
    {
      "anonymous": false,
      "inputs": [
        {
          "indexed": false,
          "name": "from",
          "type": "address"
        },
        {
          "indexed": false,
          "name": "to",
          "type": "address"
        },
        {
          "indexed": false,
          "name": "tokenId",
          "type": "uint256"
        }
      ],
      "name": "Transfer",
      "type": "event"
    },
    {
      "anonymous": false,
      "inputs": [
        {
          "indexed": false,
          "name": "newContract",
          "type": "address"
        }
      ],
      "name": "ContractUpgrade",
      "type": "event"
    }
  ],
  "bytecode": "0x60606040526000600360146101000a81548160ff021916908315150217905550600f60045561012c600560006101000a81548163ffffffff021916908363ffffffff160217905550341561005257600080fd5b610e6d806100616000396000f3006060604052600436106100fc576000357c0100000000000000000000000000000000000000000000000000000000900463ffffffff16806325bd56cc146101015780632f1621c5146101565780633b5421881461018f5780633f4ba83a146101f25780635663896e146102075780635c975abb1461022a5780637a7d4937146102575780638074f3321461028057806383082a64146102e35780638456cb59146103385780639796031a1461034d578063a1a2fbd7146103a2578063d1123ef9146103db578063d40b948514610414578063dfd9e18414610469578063e60c3021146104cc578063e6cbe35114610505578063f9767d921461055a575b600080fd5b341561010c57600080fd5b61011461058f565b604051808273ffffffffffffffffffffffffffffffffffffffff1673ffffffffffffffffffffffffffffffffffffffff16815260200191505060405180910390f35b341561016157600080fd5b61018d600480803573ffffffffffffffffffffffffffffffffffffffff169060200190919050506105b5565b005b341561019a57600080fd5b6101b06004808035906020019091905050610690565b604051808273ffffffffffffffffffffffffffffffffffffffff1673ffffffffffffffffffffffffffffffffffffffff16815260200191505060405180910390f35b34156101fd57600080fd5b6102056106c3565b005b341561021257600080fd5b6102286004808035906020019091905050610756565b005b341561023557600080fd5b61023d6108e9565b604051808215151515815260200191505060405180910390f35b341561026257600080fd5b61026a6108fc565b6040518082815260200191505060405180910390f35b341561028b57600080fd5b6102a16004808035906020019091905050610902565b604051808273ffffffffffffffffffffffffffffffffffffffff1673ffffffffffffffffffffffffffffffffffffffff16815260200191505060405180910390f35b34156102ee57600080fd5b6102f6610935565b604051808273ffffffffffffffffffffffffffffffffffffffff1673ffffffffffffffffffffffffffffffffffffffff16815260200191505060405180910390f35b341561034357600080fd5b61034b61095b565b005b341561035857600080fd5b610360610af7565b604051808273ffffffffffffffffffffffffffffffffffffffff1673ffffffffffffffffffffffffffffffffffffffff16815260200191505060405180910390f35b34156103ad57600080fd5b6103d9600480803573ffffffffffffffffffffffffffffffffffffffff16906020019091905050610b1c565b005b34156103e657600080fd5b610412600480803573ffffffffffffffffffffffffffffffffffffffff16906020019091905050610bf7565b005b341561041f57600080fd5b610427610cd2565b604051808273ffffffffffffffffffffffffffffffffffffffff1673ffffffffffffffffffffffffffffffffffffffff16815260200191505060405180910390f35b341561047457600080fd5b61048a6004808035906020019091905050610cf8565b604051808273ffffffffffffffffffffffffffffffffffffffff1673ffffffffffffffffffffffffffffffffffffffff16815260200191505060405180910390f35b34156104d757600080fd5b610503600480803573ffffffffffffffffffffffffffffffffffffffff16906020019091905050610d2b565b005b341561051057600080fd5b610518610e05565b604051808273ffffffffffffffffffffffffffffffffffffffff1673ffffffffffffffffffffffffffffffffffffffff16815260200191505060405180910390f35b341561056557600080fd5b61056d610e2b565b604051808263ffffffff1663ffffffff16815260200191505060405180910390f35b600360009054906101000a900473ffffffffffffffffffffffffffffffffffffffff1681565b6000809054906101000a900473ffffffffffffffffffffffffffffffffffffffff1673ffffffffffffffffffffffffffffffffffffffff163373ffffffffffffffffffffffffffffffffffffffff1614151561061057600080fd5b600073ffffffffffffffffffffffffffffffffffffffff168173ffffffffffffffffffffffffffffffffffffffff161415151561064c57600080fd5b80600360006101000a81548173ffffffffffffffffffffffffffffffffffffffff021916908373ffffffffffffffffffffffffffffffffffffffff16021790555050565b600a6020528060005260406000206000915054906101000a900473ffffffffffffffffffffffffffffffffffffffff1681565b6000809054906101000a900473ffffffffffffffffffffffffffffffffffffffff1673ffffffffffffffffffffffffffffffffffffffff163373ffffffffffffffffffffffffffffffffffffffff1614151561071e57600080fd5b600360149054906101000a900460ff16151561073957600080fd5b6000600360146101000a81548160ff021916908315150217905550565b6000809054906101000a900473ffffffffffffffffffffffffffffffffffffffff1673ffffffffffffffffffffffffffffffffffffffff163373ffffffffffffffffffffffffffffffffffffffff1614806107fe5750600160009054906101000a900473ffffffffffffffffffffffffffffffffffffffff1673ffffffffffffffffffffffffffffffffffffffff163373ffffffffffffffffffffffffffffffffffffffff16145b806108565750600260009054906101000a900473ffffffffffffffffffffffffffffffffffffffff1673ffffffffffffffffffffffffffffffffffffffff163373ffffffffffffffffffffffffffffffffffffffff16145b806108ae5750600360009054906101000a900473ffffffffffffffffffffffffffffffffffffffff1673ffffffffffffffffffffffffffffffffffffffff163373ffffffffffffffffffffffffffffffffffffffff16145b15156108b957600080fd5b600560009054906101000a900463ffffffff1663ffffffff16811015156108df57600080fd5b8060048190555050565b600360149054906101000a900460ff1681565b60045481565b60076020528060005260406000206000915054906101000a900473ffffffffffffffffffffffffffffffffffffffff1681565b600260009054906101000a900473ffffffffffffffffffffffffffffffffffffffff1681565b6000809054906101000a900473ffffffffffffffffffffffffffffffffffffffff1673ffffffffffffffffffffffffffffffffffffffff163373ffffffffffffffffffffffffffffffffffffffff161480610a035750600160009054906101000a900473ffffffffffffffffffffffffffffffffffffffff1673ffffffffffffffffffffffffffffffffffffffff163373ffffffffffffffffffffffffffffffffffffffff16145b80610a5b5750600260009054906101000a900473ffffffffffffffffffffffffffffffffffffffff1673ffffffffffffffffffffffffffffffffffffffff163373ffffffffffffffffffffffffffffffffffffffff16145b80610ab35750600360009054906101000a900473ffffffffffffffffffffffffffffffffffffffff1673ffffffffffffffffffffffffffffffffffffffff163373ffffffffffffffffffffffffffffffffffffffff16145b1515610abe57600080fd5b600360149054906101000a900460ff16151515610ada57600080fd5b6001600360146101000a81548160ff021916908315150217905550565b6000809054906101000a900473ffffffffffffffffffffffffffffffffffffffff1681565b6000809054906101000a900473ffffffffffffffffffffffffffffffffffffffff1673ffffffffffffffffffffffffffffffffffffffff163373ffffffffffffffffffffffffffffffffffffffff16141515610b7757600080fd5b600073ffffffffffffffffffffffffffffffffffffffff168173ffffffffffffffffffffffffffffffffffffffff1614151515610bb357600080fd5b80600160006101000a81548173ffffffffffffffffffffffffffffffffffffffff021916908373ffffffffffffffffffffffffffffffffffffffff16021790555050565b6000809054906101000a900473ffffffffffffffffffffffffffffffffffffffff1673ffffffffffffffffffffffffffffffffffffffff163373ffffffffffffffffffffffffffffffffffffffff16141515610c5257600080fd5b600073ffffffffffffffffffffffffffffffffffffffff168173ffffffffffffffffffffffffffffffffffffffff1614151515610c8e57600080fd5b80600260006101000a81548173ffffffffffffffffffffffffffffffffffffffff021916908373ffffffffffffffffffffffffffffffffffffffff16021790555050565b600160009054906101000a900473ffffffffffffffffffffffffffffffffffffffff1681565b60096020528060005260406000206000915054906101000a900473ffffffffffffffffffffffffffffffffffffffff1681565b6000809054906101000a900473ffffffffffffffffffffffffffffffffffffffff1673ffffffffffffffffffffffffffffffffffffffff163373ffffffffffffffffffffffffffffffffffffffff16141515610d8657600080fd5b600073ffffffffffffffffffffffffffffffffffffffff168173ffffffffffffffffffffffffffffffffffffffff1614151515610dc257600080fd5b806000806101000a81548173ffffffffffffffffffffffffffffffffffffffff021916908373ffffffffffffffffffffffffffffffffffffffff16021790555050565b600b60009054906101000a900473ffffffffffffffffffffffffffffffffffffffff1681565b600560009054906101000a900463ffffffff16815600a165627a7a72305820f5faa03f7cb7c8d22336bbecd2529dacfaa77f913735ee6d2ce6680215b3a95b0029",
  "source": "pragma solidity ^0.4.17;\r\n\r\nimport 'contracts/RoleManagement/EtherWarzRoleManagement.sol';\r\nimport 'contracts/Auctions/SaleClockAuction.sol';\r\n\r\n///Some of the below contracts were adapted from those designed for use in the Cryptokitties DAP. Go check it out!  (https://www.cryptokitties.co/)\r\n///Many thanks to Axiom Zen (https://www.axiomzen.co) and the Loom Network (https://loomx.io/) for their excellent work \r\n///pushing the boundries of Blockchain DAP development and providing excellent tutorials and learning resources for new DAP developers.\r\n\r\n///@title Base contract for EtherWarz. Holds all common structs, events and base variables.\r\n///@author Streamvade\r\n///@dev See the EtherWarz contract documentation to understand how the various contract facets are linked and organised.\r\ncontract SmartDroneBase is EtherWarzRoleManagement {\r\n    /*** EVENTS ***/\r\n    \r\n    /// @dev The Construct event is fired whenever a new Smart Drone comes into existence.\r\n    event Construct(address owner, uint256 droneId, uint256 lineId, uint256 sourceAI);\r\n\r\n    /// @dev Transfer event as defined in current draft of ERC721. Emitted every time a Smart Drones\r\n    /// ownership is assigned, including self-duplication.\r\n    event Transfer(address from, address to, uint256 tokenId);\r\n\r\n    /*** DATA TYPES ***/\r\n    /// @dev The main Smart Drone struct. Every Smart Drone in EtherWarz is represented by a copy of this structure.\r\n    struct SmartDrone {\r\n        //The Smart Drones \"AI\" is stored in these 256-bits. The AI will change as the Smart Drone looses fights. Self-duplicating drones\r\n        //create a duplicate with an exact copy of their own sourceAI.\r\n        bytes32 sourceAI;\r\n        //The Smart Drones \"AI\" is stored in these 256-bits. The AI will change as the Smart Drone looses fights. Self-duplicating drones\r\n        //create a duplicate with an exact copy of their own sourceAI.\r\n        bytes32 oldSourceAI;\r\n        //The lineId of the Smart Drone defines is physical construction. This will be defined when a new Smart Drone \r\n        //is constructed.\r\n        bytes32 lineId;\r\n        // The timestamp from the block when this Smart Drone came into existence.\r\n        uint64 birthTime;\r\n        // The next timestamp a Smart Drone will be able to fight again.\r\n        uint64 cooldownEndBlock;\r\n        //The total number of victories the Smart Drone has won.\r\n        uint32 victories;\r\n        //The total number of losses the Smart Drone has suffered.\r\n        uint32 defeats;\r\n        \r\n    }\r\n\r\n    /*** CONSTANTS ***/\r\n\r\n    // An approximation of currently how many seconds are in-between blocks.\r\n    uint256 public secondsPerBlock = 15;\r\n    // Fight cooldown times\r\n    uint32 public fightCooldown = uint32(5 minutes);\r\n\r\n\r\n    /*** STORAGE  ***/\r\n    /// @dev An array containing the SmartDrone struct for all Smart Drones in existence. ID 0 is the master production facility from which all new production lines are created.\r\n    SmartDrone[] smartDrones;\r\n\r\n    ///@dev A mapping from drone IDs to the address that owns them. All drones have\r\n    /// some valid owner address, even gen0 drones are created with a non-sero owner.\r\n    mapping(uint256=>address) public droneIndexToOwner;\r\n\r\n    ///@dev A mapping from owner address to count of tokens that address owns.\r\n    // Used internally inside balanceOf() to resolve ownership count.\r\n    mapping(address=>uint256) ownershipTokenCount;\r\n\r\n    ///@dev A mapping from DroneIDs to an address that has been approved to call\r\n    /// transferFrom(). Each Drone can only have one approved address for transfer\r\n    /// at any time. A zero value means no approval is outstanding.\r\n    mapping (uint256 => address) public droneIndexToApproved;\r\n\r\n    ///@dev A mapping from DroneIDs to an address that has been approved to use\r\n    /// this Drone for fighting via fightWith(). Each drone can only have one approved\r\n    /// address for fighting at any time. A zero value means no approval is outstanding.\r\n    mapping (uint256 => address) public fightAllowedToAddress;\r\n\r\n    ///@dev The address of the ClockAuction contract that handles sales of Drones. This\r\n    /// same contract handles both peer-to-peer sales as well as the gen0 sales which are \r\n    /// initiated every 15 minutes.\r\n    SaleClockAuction public saleAuction;\r\n\r\n    ///@dev Assigns ownership of a specific Drone to an address.\r\n    function _transfer(address _from, address _to, uint256 _tokenId)internal {\r\n        //Since the number of drones is capped to 2^32 we can't overflow this\r\n        ownershipTokenCount[_to]++;\r\n        // transfer ownership\r\n        droneIndexToOwner[_tokenId] = _to;\r\n        //When creating new drones _from is 0x0, but we can't account that address!\r\n        if (_from!=address(0)) {\r\n            ownershipTokenCount[_from]--;\r\n            //once the drone is transferred also clear fight allowances\r\n            delete fightAllowedToAddress[_tokenId];\r\n            // clear any previously approved ownership exchange\r\n            delete droneIndexToApproved[_tokenId];\r\n        }\r\n        //Emit the transfer event.\r\n        Transfer(_from,_to,_tokenId);\r\n    }\r\n\r\n    ///@dev An internal method that creates a new Smart Drone and stores it. This\r\n    /// method doesn't do any checking and should only be called when the \r\n    /// input data is known to be valid. Will generate both a Constructed event and a Transfer event.\r\n    ///@param _sourceAI The AI that will be used to determin how the SmartDrone fights\r\n    ///@param _lineId The physical construction line used to determin the SmartDrones physical charactersitics.\r\n    ///@param _owner The initial owner of the drone, must be non-zero (except for the Construcion Line, ID 0)\r\n    function _createDrone(\r\n        bytes32 _sourceAI,\r\n        bytes32 _lineId,\r\n        address _owner\r\n    )\r\n        internal\r\n        returns (uint)\r\n    {\r\n        //The requires are not strictly necessary, our calling code should make\r\n        //sure that these conditions are never broken. However! _createDrone() is already\r\n        // an expensive call (for storage), and it doesn't hurt to be especially careful\r\n        // to ensure our data structures are always valid.\r\n        require(_lineId == bytes32(_lineId));\r\n\r\n        SmartDrone memory _smartDrone = SmartDrone({sourceAI:_sourceAI,oldSourceAI:_sourceAI, birthTime:uint64(now),cooldownEndBlock:0,victories:0,defeats:0,lineId:_lineId});\r\n        uint256 newDroneID = smartDrones.push(_smartDrone) - 1;\r\n        //Just check to ensure we haven't created more than 4 billion drones!\r\n        require(newDroneID == uint256(uint32(newDroneID)));\r\n        // emit the construction event\r\n        Construct(\r\n            _owner,\r\n            newDroneID,\r\n            uint256(_smartDrone.lineId),\r\n            uint256(_smartDrone.sourceAI)\r\n        );\r\n\r\n        //This will assign ownership, and also emit the Transfer event as\r\n        //per ERC721 draft\r\n        _transfer(0, _owner, newDroneID);\r\n        return newDroneID;\r\n    }\r\n\r\n    // Any Manager can fix how many seconds per blocks are currently observed.\r\n    function setSecondsPerBlock(uint256 secs) external onlyManager {\r\n        require(secs<fightCooldown);\r\n        secondsPerBlock = secs;\r\n    }\r\n}\r\n\r\n\r\n\r\n",
  "sourcePath": "contracts/Core/SmartDroneBase.sol",
  "compiler": {
    "name": "solc",
    "version": "0.4.18+commit.9cf6e910.Emscripten.clang"
  },
  "schemaVersion": "1.0.1",
  "updatedAt": "2018-01-04T22:15:52.594Z"
}