{
  "contractName": "WarInterface",
  "abi": [
    {
      "constant": true,
      "inputs": [],
      "name": "generateNew",
      "outputs": [
        {
          "name": "",
          "type": "bytes32"
        }
      ],
      "payable": false,
      "stateMutability": "pure",
      "type": "function"
    },
    {
      "constant": true,
      "inputs": [],
      "name": "isWarInterface",
      "outputs": [
        {
          "name": "",
          "type": "bool"
        }
      ],
      "payable": false,
      "stateMutability": "pure",
      "type": "function"
    }
  ],
  "bytecode": "0x6060604052341561000f57600080fd5b6101088061001e6000396000f3006060604052600436106049576000357c0100000000000000000000000000000000000000000000000000000000900463ffffffff1680635c96c43a14604e5780636fa9e4ba14607c575b600080fd5b3415605857600080fd5b605e60a6565b60405180826000191660001916815260200191505060405180910390f35b3415608657600080fd5b608c60d3565b604051808215151515815260200191505060405180910390f35b6000807f300000000000000000000000000000000000000000000000000000000000000090508091505090565b600060019050905600a165627a7a7230582095867ee343bf488dacf57e4b6fef67debb6de1ba88ff0586283636990af4192f0029",
  "source": "pragma solidity ^0.4.17;\r\n\r\n/// @title No, you don't get to see this :P\r\ncontract WarInterface {\r\n    ///@dev simply a boolean to indicate this is the contract we expect to be\r\n    function isWarInterface() public pure returns (bool) {\r\n        return true;\r\n    }\r\n\r\n    function generateNew() public pure returns (bytes32) {\r\n       bytes32 generatedAiSource = \"0\";\r\n       \r\n       return generatedAiSource; \r\n    }\r\n}",
  "sourcePath": "E:\\Blockchain\\Development\\Ethereum\\Projects\\EtherStrike\\contracts\\War\\WarInterface.sol",
  "compiler": {
    "name": "solc",
    "version": "0.4.18+commit.9cf6e910.Emscripten.clang"
  },
  "schemaVersion": "1.0.1",
  "updatedAt": "2018-01-06T14:59:14.984Z"
}